{
  "contractName": "ListingFeeProvider",
  "abi": [
    {
      "anonymous": false,
      "inputs": [
        {
          "indexed": false,
          "internalType": "uint256",
          "name": "newPercentFee",
          "type": "uint256"
        },
        {
          "indexed": false,
          "internalType": "uint256",
          "name": "oldPercentFee",
          "type": "uint256"
        },
        {
          "indexed": false,
          "internalType": "address",
          "name": "buyer",
          "type": "address"
        },
        {
          "indexed": false,
          "internalType": "address",
          "name": "seller",
          "type": "address"
        },
        {
          "indexed": false,
          "internalType": "address",
          "name": "token",
          "type": "address"
        },
        {
          "indexed": false,
          "internalType": "address",
          "name": "operator",
          "type": "address"
        }
      ],
      "name": "LogCustomFeeChanged",
      "type": "event"
    },
    {
      "anonymous": false,
      "inputs": [
        {
          "indexed": false,
          "internalType": "uint256",
          "name": "newPercentFee",
          "type": "uint256"
        },
        {
          "indexed": false,
          "internalType": "uint256",
          "name": "oldPercentFee",
          "type": "uint256"
        },
        {
          "indexed": false,
          "internalType": "address",
          "name": "operator",
          "type": "address"
        }
      ],
      "name": "LogFeeChanged",
      "type": "event"
    },
    {
      "anonymous": false,
      "inputs": [
        {
          "indexed": false,
          "internalType": "address",
          "name": "operator",
          "type": "address"
        }
      ],
      "name": "OperatorAdded",
      "type": "event"
    },
    {
      "anonymous": false,
      "inputs": [
        {
          "indexed": false,
          "internalType": "address",
          "name": "operator",
          "type": "address"
        }
      ],
      "name": "OperatorRemoved",
      "type": "event"
    },
    {
      "anonymous": false,
      "inputs": [
        {
          "indexed": true,
          "internalType": "address",
          "name": "previousOwner",
          "type": "address"
        }
      ],
      "name": "OwnershipRenounced",
      "type": "event"
    },
    {
      "anonymous": false,
      "inputs": [
        {
          "indexed": true,
          "internalType": "address",
          "name": "previousOwner",
          "type": "address"
        },
        {
          "indexed": true,
          "internalType": "address",
          "name": "newOwner",
          "type": "address"
        }
      ],
      "name": "OwnershipTransferred",
      "type": "event"
    },
    {
      "inputs": [],
      "name": "MAX_OPS",
      "outputs": [
        {
          "internalType": "uint256",
          "name": "",
          "type": "uint256"
        }
      ],
      "stateMutability": "view",
      "type": "function"
    },
    {
      "inputs": [
        {
          "internalType": "address",
          "name": "_newOperator",
          "type": "address"
        }
      ],
      "name": "addOperator",
      "outputs": [],
      "stateMutability": "nonpayable",
      "type": "function"
    },
    {
      "inputs": [
        {
          "internalType": "bytes32",
          "name": "",
          "type": "bytes32"
        }
      ],
      "name": "customFee",
      "outputs": [
        {
          "internalType": "uint256",
          "name": "",
          "type": "uint256"
        }
      ],
      "stateMutability": "view",
      "type": "function"
    },
    {
      "inputs": [
        {
          "internalType": "address",
          "name": "",
          "type": "address"
        }
      ],
      "name": "isOperator",
      "outputs": [
        {
          "internalType": "bool",
          "name": "",
          "type": "bool"
        }
      ],
      "stateMutability": "view",
      "type": "function"
    },
    {
      "inputs": [
        {
          "internalType": "uint256",
          "name": "",
          "type": "uint256"
        }
      ],
      "name": "operators",
      "outputs": [
        {
          "internalType": "address",
          "name": "",
          "type": "address"
        }
      ],
      "stateMutability": "view",
      "type": "function"
    },
    {
      "inputs": [],
      "name": "owner",
      "outputs": [
        {
          "internalType": "address",
          "name": "",
          "type": "address"
        }
      ],
      "stateMutability": "view",
      "type": "function"
    },
    {
      "inputs": [],
      "name": "removeAllOps",
      "outputs": [],
      "stateMutability": "nonpayable",
      "type": "function"
    },
    {
      "inputs": [
        {
          "internalType": "address",
          "name": "_operator",
          "type": "address"
        }
      ],
      "name": "removeOperator",
      "outputs": [],
      "stateMutability": "nonpayable",
      "type": "function"
    },
    {
      "inputs": [],
      "name": "renounceOwnership",
      "outputs": [],
      "stateMutability": "nonpayable",
      "type": "function"
    },
    {
      "inputs": [
        {
          "internalType": "address",
          "name": "_newOwner",
          "type": "address"
        }
      ],
      "name": "transferOwnership",
      "outputs": [],
      "stateMutability": "nonpayable",
      "type": "function"
    },
    {
      "inputs": [
        {
          "internalType": "uint256",
          "name": "_newFee",
          "type": "uint256"
        }
      ],
      "name": "updateFee",
      "outputs": [],
      "stateMutability": "nonpayable",
      "type": "function"
    },
    {
      "inputs": [
        {
          "internalType": "uint256",
          "name": "_newFee",
          "type": "uint256"
        },
        {
          "internalType": "address",
          "name": "_currency",
          "type": "address"
        },
        {
          "internalType": "address",
          "name": "_buyer",
          "type": "address"
        },
        {
          "internalType": "address",
          "name": "_seller",
          "type": "address"
        },
        {
          "internalType": "address",
          "name": "_token",
          "type": "address"
        }
      ],
      "name": "updateCustomFee",
      "outputs": [],
      "stateMutability": "nonpayable",
      "type": "function"
    },
    {
      "inputs": [
        {
          "internalType": "uint256",
          "name": "_price",
          "type": "uint256"
        },
        {
          "internalType": "address",
          "name": "_currency",
          "type": "address"
        },
        {
          "internalType": "address",
          "name": "_buyer",
          "type": "address"
        },
        {
          "internalType": "address",
          "name": "_seller",
          "type": "address"
        },
        {
          "internalType": "address",
          "name": "_token",
          "type": "address"
        }
      ],
      "name": "getFee",
      "outputs": [
        {
          "internalType": "uint256",
          "name": "percent",
          "type": "uint256"
        },
        {
          "internalType": "uint256",
          "name": "fee",
          "type": "uint256"
        }
      ],
      "stateMutability": "view",
      "type": "function"
    }
  ],
  "bytecode": "0x608060405260146002556101f460045534801561001b57600080fd5b50336000806101000a81548173ffffffffffffffffffffffffffffffffffffffff021916908373ffffffffffffffffffffffffffffffffffffffff160217905550611a8a8061006b6000396000f3fe608060405234801561001057600080fd5b50600436106100cf5760003560e01c80639870d7fe1161008c578063d71cf1e411610066578063d71cf1e4146101c4578063e28d4906146101f5578063e723304914610225578063f2fde38b14610255576100cf565b80639870d7fe14610182578063ac8a584a1461019e578063bc14016b146101ba576100cf565b806369d25ff2146100d45780636d70f7ae146100f0578063715018a614610120578063786431c11461012a5780638da5cb5b146101485780639012c4a814610166575b600080fd5b6100ee60048036038101906100e991906111e1565b610271565b005b61010a6004803603810190610105919061125c565b61042f565b60405161011791906112a4565b60405180910390f35b61012861044f565b005b61013261054d565b60405161013f91906112ce565b60405180910390f35b610150610553565b60405161015d91906112f8565b60405180910390f35b610180600480360381019061017b9190611313565b610577565b005b61019c6004803603810190610197919061125c565b6106f8565b005b6101b860048036038101906101b3919061125c565b61098a565b005b6101c2610cde565b005b6101de60048036038101906101d991906111e1565b610e00565b6040516101ec929190611340565b60405180910390f35b61020f600480360381019061020a9190611313565b610e49565b60405161021c91906112f8565b60405180910390f35b61023f600480360381019061023a919061139f565b610e88565b60405161024c91906112ce565b60405180910390f35b61026f600480360381019061026a919061125c565b610ea0565b005b600360003373ffffffffffffffffffffffffffffffffffffffff1673ffffffffffffffffffffffffffffffffffffffff16815260200190815260200160002060009054906101000a900460ff1680610314575060008054906101000a900473ffffffffffffffffffffffffffffffffffffffff1673ffffffffffffffffffffffffffffffffffffffff163373ffffffffffffffffffffffffffffffffffffffff16145b610353576040517f08c379a000000000000000000000000000000000000000000000000000000000815260040161034a9061144f565b60405180910390fd5b6000851015801561036657506127108511155b6103a5576040517f08c379a000000000000000000000000000000000000000000000000000000000815260040161039c906114bb565b60405180910390fd5b60006103b385858585610f04565b90506000600560008381526020019081526020016000205490508660056000848152602001908152602001600020819055507fa1cbfcd81405fb056a84ba381c6c6cd771ac64a04858d886470289681a6df86387828787873360405161041e969594939291906114db565b60405180910390a150505050505050565b60036020528060005260406000206000915054906101000a900460ff1681565b60008054906101000a900473ffffffffffffffffffffffffffffffffffffffff1673ffffffffffffffffffffffffffffffffffffffff163373ffffffffffffffffffffffffffffffffffffffff16146104a757600080fd5b60008054906101000a900473ffffffffffffffffffffffffffffffffffffffff1673ffffffffffffffffffffffffffffffffffffffff167ff8df31144d9c2f0f6b59d69b8b98abd5459d07f2742c4df920b25aae33c6482060405160405180910390a260008060006101000a81548173ffffffffffffffffffffffffffffffffffffffff021916908373ffffffffffffffffffffffffffffffffffffffff160217905550565b60025481565b60008054906101000a900473ffffffffffffffffffffffffffffffffffffffff1681565b600360003373ffffffffffffffffffffffffffffffffffffffff1673ffffffffffffffffffffffffffffffffffffffff16815260200190815260200160002060009054906101000a900460ff168061061a575060008054906101000a900473ffffffffffffffffffffffffffffffffffffffff1673ffffffffffffffffffffffffffffffffffffffff163373ffffffffffffffffffffffffffffffffffffffff16145b610659576040517f08c379a00000000000000000000000000000000000000000000000000000000081526004016106509061144f565b60405180910390fd5b6000811015801561066c57506127108111155b6106ab576040517f08c379a00000000000000000000000000000000000000000000000000000000081526004016106a2906114bb565b60405180910390fd5b60006004549050816004819055507fa01bc2fc26fecb5f33a8d21e49a0e283f8c47c97c20fca8709d50b4687a96bf68282336040516106ec9392919061153c565b60405180910390a15050565b60008054906101000a900473ffffffffffffffffffffffffffffffffffffffff1673ffffffffffffffffffffffffffffffffffffffff163373ffffffffffffffffffffffffffffffffffffffff161461075057600080fd5b600073ffffffffffffffffffffffffffffffffffffffff168173ffffffffffffffffffffffffffffffffffffffff16036107bf576040517f08c379a00000000000000000000000000000000000000000000000000000000081526004016107b6906115bf565b60405180910390fd5b600360008273ffffffffffffffffffffffffffffffffffffffff1673ffffffffffffffffffffffffffffffffffffffff16815260200190815260200160002060009054906101000a900460ff161561084c576040517f08c379a00000000000000000000000000000000000000000000000000000000081526004016108439061162b565b60405180910390fd5b60025460018054905010610895576040517f08c379a000000000000000000000000000000000000000000000000000000000815260040161088c90611697565b60405180910390fd5b6001819080600181540180825580915050600190039060005260206000200160009091909190916101000a81548173ffffffffffffffffffffffffffffffffffffffff021916908373ffffffffffffffffffffffffffffffffffffffff1602179055506001600360008373ffffffffffffffffffffffffffffffffffffffff1673ffffffffffffffffffffffffffffffffffffffff16815260200190815260200160002060006101000a81548160ff0219169083151502179055507fac6fa858e9350a46cec16539926e0fde25b7629f84b5a72bffaae4df888ae86d8160405161097f91906112f8565b60405180910390a150565b60008054906101000a900473ffffffffffffffffffffffffffffffffffffffff1673ffffffffffffffffffffffffffffffffffffffff163373ffffffffffffffffffffffffffffffffffffffff16146109e257600080fd5b600060018054905011610a2a576040517f08c379a0000000000000000000000000000000000000000000000000000000008152600401610a2190611703565b60405180910390fd5b600360008273ffffffffffffffffffffffffffffffffffffffff1673ffffffffffffffffffffffffffffffffffffffff16815260200190815260200160002060009054906101000a900460ff16610ab6576040517f08c379a0000000000000000000000000000000000000000000000000000000008152600401610aad9061176f565b60405180910390fd5b60006001808080549050610aca91906117be565b81548110610adb57610ada6117f2565b5b9060005260206000200160009054906101000a900473ffffffffffffffffffffffffffffffffffffffff16905060005b600180549050811015610bfa578273ffffffffffffffffffffffffffffffffffffffff1660018281548110610b4357610b426117f2565b5b9060005260206000200160009054906101000a900473ffffffffffffffffffffffffffffffffffffffff1673ffffffffffffffffffffffffffffffffffffffff1603610be7578160018281548110610b9e57610b9d6117f2565b5b9060005260206000200160006101000a81548173ffffffffffffffffffffffffffffffffffffffff021916908373ffffffffffffffffffffffffffffffffffffffff1602179055505b8080610bf290611821565b915050610b0b565b506001808080549050610c0d91906117be565b81548110610c1e57610c1d6117f2565b5b9060005260206000200160006101000a81549073ffffffffffffffffffffffffffffffffffffffff02191690556000600360008473ffffffffffffffffffffffffffffffffffffffff1673ffffffffffffffffffffffffffffffffffffffff16815260200190815260200160002060006101000a81548160ff0219169083151502179055507f80c0b871b97b595b16a7741c1b06fed0c6f6f558639f18ccbce50724325dc40d82604051610cd291906112f8565b60405180910390a15050565b60008054906101000a900473ffffffffffffffffffffffffffffffffffffffff1673ffffffffffffffffffffffffffffffffffffffff163373ffffffffffffffffffffffffffffffffffffffff1614610d3657600080fd5b60005b600180549050811015610def5760006003600060018481548110610d6057610d5f6117f2565b5b9060005260206000200160009054906101000a900473ffffffffffffffffffffffffffffffffffffffff1673ffffffffffffffffffffffffffffffffffffffff1673ffffffffffffffffffffffffffffffffffffffff16815260200190815260200160002060006101000a81548160ff0219169083151502179055508080610de790611821565b915050610d39565b5060016000610dfe919061110a565b565b6000806000610e1187878787610f04565b9050600060056000838152602001908152602001600020549050610e358982610f3d565b809450819550505050509550959350505050565b60018181548110610e5957600080fd5b906000526020600020016000915054906101000a900473ffffffffffffffffffffffffffffffffffffffff1681565b60056020528060005260406000206000915090505481565b60008054906101000a900473ffffffffffffffffffffffffffffffffffffffff1673ffffffffffffffffffffffffffffffffffffffff163373ffffffffffffffffffffffffffffffffffffffff1614610ef857600080fd5b610f0181610fcc565b50565b600084848484604051602001610f1d94939291906118b1565b604051602081830303815290604052805190602001209050949350505050565b6000806000841015610f84576040517f08c379a0000000000000000000000000000000000000000000000000000000008152600401610f7b9061194b565b60405180910390fd5b82915060008303610f955760045491505b6127108303610fab576000915060009050610fc5565b612710610fb885846110c2565b610fc2919061199a565b90505b9250929050565b600073ffffffffffffffffffffffffffffffffffffffff168173ffffffffffffffffffffffffffffffffffffffff160361100557600080fd5b8073ffffffffffffffffffffffffffffffffffffffff1660008054906101000a900473ffffffffffffffffffffffffffffffffffffffff1673ffffffffffffffffffffffffffffffffffffffff167f8be0079c531659141344cd1fd0a4f28419497f9722a3daafe3b4186f6b6457e060405160405180910390a3806000806101000a81548173ffffffffffffffffffffffffffffffffffffffff021916908373ffffffffffffffffffffffffffffffffffffffff16021790555050565b60008083036110d45760009050611104565b600082846110e291906119cb565b90508284826110f1919061199a565b146110ff576110fe611a25565b5b809150505b92915050565b5080546000825590600052602060002090810190611128919061112b565b50565b5b8082111561114457600081600090555060010161112c565b5090565b600080fd5b6000819050919050565b6111608161114d565b811461116b57600080fd5b50565b60008135905061117d81611157565b92915050565b600073ffffffffffffffffffffffffffffffffffffffff82169050919050565b60006111ae82611183565b9050919050565b6111be816111a3565b81146111c957600080fd5b50565b6000813590506111db816111b5565b92915050565b600080600080600060a086880312156111fd576111fc611148565b5b600061120b8882890161116e565b955050602061121c888289016111cc565b945050604061122d888289016111cc565b935050606061123e888289016111cc565b925050608061124f888289016111cc565b9150509295509295909350565b60006020828403121561127257611271611148565b5b6000611280848285016111cc565b91505092915050565b60008115159050919050565b61129e81611289565b82525050565b60006020820190506112b96000830184611295565b92915050565b6112c88161114d565b82525050565b60006020820190506112e360008301846112bf565b92915050565b6112f2816111a3565b82525050565b600060208201905061130d60008301846112e9565b92915050565b60006020828403121561132957611328611148565b5b60006113378482850161116e565b91505092915050565b600060408201905061135560008301856112bf565b61136260208301846112bf565b9392505050565b6000819050919050565b61137c81611369565b811461138757600080fd5b50565b60008135905061139981611373565b92915050565b6000602082840312156113b5576113b4611148565b5b60006113c38482850161138a565b91505092915050565b600082825260208201905092915050565b7f5065726d697373696f6e2064656e6965642e204d75737420626520616e206f7060008201527f657261746f72206f7220746865206f776e65722e000000000000000000000000602082015250565b60006114396034836113cc565b9150611444826113dd565b604082019050919050565b600060208201905081810360008301526114688161142c565b9050919050565b7f496e76616c69642070657263656e74206665652e000000000000000000000000600082015250565b60006114a56014836113cc565b91506114b08261146f565b602082019050919050565b600060208201905081810360008301526114d481611498565b9050919050565b600060c0820190506114f060008301896112bf565b6114fd60208301886112bf565b61150a60408301876112e9565b61151760608301866112e9565b61152460808301856112e9565b61153160a08301846112e9565b979650505050505050565b600060608201905061155160008301866112bf565b61155e60208301856112bf565b61156b60408301846112e9565b949350505050565b7f496e76616c6964206e6577206f70657261746f7220616464726573732e000000600082015250565b60006115a9601d836113cc565b91506115b482611573565b602082019050919050565b600060208201905081810360008301526115d88161159c565b9050919050565b7f4e6577206f70657261746f72206578697374732e000000000000000000000000600082015250565b60006116156014836113cc565b9150611620826115df565b602082019050919050565b6000602082019050818103600083015261164481611608565b9050919050565b7f4f766572666c6f772e0000000000000000000000000000000000000000000000600082015250565b60006116816009836113cc565b915061168c8261164b565b602082019050919050565b600060208201905081810360008301526116b081611674565b9050919050565b7f4e6f206f70657261746f722e0000000000000000000000000000000000000000600082015250565b60006116ed600c836113cc565b91506116f8826116b7565b602082019050919050565b6000602082019050818103600083015261171c816116e0565b9050919050565b7f4e6f7420616e206f70657261746f722e00000000000000000000000000000000600082015250565b60006117596010836113cc565b915061176482611723565b602082019050919050565b600060208201905081810360008301526117888161174c565b9050919050565b7f4e487b7100000000000000000000000000000000000000000000000000000000600052601160045260246000fd5b60006117c98261114d565b91506117d48361114d565b9250828210156117e7576117e661178f565b5b828203905092915050565b7f4e487b7100000000000000000000000000000000000000000000000000000000600052603260045260246000fd5b600061182c8261114d565b91507fffffffffffffffffffffffffffffffffffffffffffffffffffffffffffffffff820361185e5761185d61178f565b5b600182019050919050565b60008160601b9050919050565b600061188182611869565b9050919050565b600061189382611876565b9050919050565b6118ab6118a6826111a3565b611888565b82525050565b60006118bd828761189a565b6014820191506118cd828661189a565b6014820191506118dd828561189a565b6014820191506118ed828461189a565b60148201915081905095945050505050565b7f496e76616c69642070726963652e000000000000000000000000000000000000600082015250565b6000611935600e836113cc565b9150611940826118ff565b602082019050919050565b6000602082019050818103600083015261196481611928565b9050919050565b7f4e487b7100000000000000000000000000000000000000000000000000000000600052601260045260246000fd5b60006119a58261114d565b91506119b08361114d565b9250826119c0576119bf61196b565b5b828204905092915050565b60006119d68261114d565b91506119e18361114d565b9250817fffffffffffffffffffffffffffffffffffffffffffffffffffffffffffffffff0483118215151615611a1a57611a1961178f565b5b828202905092915050565b7f4e487b7100000000000000000000000000000000000000000000000000000000600052600160045260246000fdfea26469706673582212205eeba7c655ba3576875e6c33f7e4dd0fbb4807d05c95386461c482479eb2f3fa64736f6c634300080d0033",
  "immutableReferences": {},
  "source": "// SPDX-License-Identifier: MIT\n\npragma solidity ^0.8.0;\n\nimport \"./Operator.sol\";\n\ncontract ListingFeeProvider is Operator {\n    // @dev Since default uint value is zero, need to distinguish Default vs No Fee\n    uint256 constant NO_FEE = 10000;\n\n    uint256 defaultPercentFee = 500; // default fee: 5%\n\n    mapping(bytes32 => uint256) public customFee; // Allow buyer or seller or game discounts\n\n    event LogFeeChanged(\n        uint256 newPercentFee,\n        uint256 oldPercentFee,\n        address operator\n    );\n    event LogCustomFeeChanged(\n        uint256 newPercentFee,\n        uint256 oldPercentFee,\n        address buyer,\n        address seller,\n        address token,\n        address operator\n    );\n\n    /**\n     * @dev Allow operators to update the fee for a custom combo\n     * @param _newFee New fee in percent x 100 (to support decimals)\n     */\n    function updateFee(uint256 _newFee) public onlyOperator {\n        require(_newFee >= 0 && _newFee <= 10000, \"Invalid percent fee.\");\n\n        uint256 oldPercentFee = defaultPercentFee;\n        defaultPercentFee = _newFee;\n\n        emit LogFeeChanged(_newFee, oldPercentFee, msg.sender);\n    }\n\n    /**\n     * @dev Allow operators to update the fee for a custom combo\n     * @param _newFee New fee in percent x 100 (to support decimals)\n     *                enter zero for default, 10000 for No Fee\n     */\n    function updateCustomFee(\n        uint256 _newFee,\n        address _currency,\n        address _buyer,\n        address _seller,\n        address _token\n    ) public onlyOperator {\n        require(_newFee >= 0 && _newFee <= 10000, \"Invalid percent fee.\");\n\n        bytes32 key = _getHash(_currency, _buyer, _seller, _token);\n        uint256 oldPercentFee = customFee[key];\n        customFee[key] = _newFee;\n\n        emit LogCustomFeeChanged(\n            _newFee,\n            oldPercentFee,\n            _buyer,\n            _seller,\n            _token,\n            msg.sender\n        );\n    }\n\n    /**\n     * @dev Calculate the custom fee based on buyer, seller, game token or combo of these\n     */\n    function getFee(\n        uint256 _price,\n        address _currency,\n        address _buyer,\n        address _seller,\n        address _token\n    ) public view returns (uint256 percent, uint256 fee) {\n        bytes32 key = _getHash(_currency, _buyer, _seller, _token);\n        uint256 customPercentFee = customFee[key];\n        (percent, fee) = _getFee(_price, customPercentFee);\n    }\n\n    function _getFee(uint256 _price, uint256 _percentFee)\n        internal\n        view\n        returns (uint256 percent, uint256 fee)\n    {\n        require(_price >= 0, \"Invalid price.\");\n\n        percent = _percentFee;\n\n        // No data, set it to default\n        if (_percentFee == 0) {\n            percent = defaultPercentFee;\n        }\n\n        // Special value to set it to zero\n        if (_percentFee == NO_FEE) {\n            percent = 0;\n            fee = 0;\n        } else {\n            fee = _safeMul(_price, percent) / 10000; // adjust for percent and decimal. division always truncate\n        }\n    }\n\n    // get custom fee hash\n    function _getHash(\n        address _currency,\n        address _buyer,\n        address _seller,\n        address _token\n    ) internal pure returns (bytes32 key) {\n        key = keccak256(abi.encodePacked(_currency, _buyer, _seller, _token));\n    }\n\n    // safe multiplication\n    function _safeMul(uint256 a, uint256 b) internal pure returns (uint256) {\n        if (a == 0) {\n            return 0;\n        }\n        uint256 c = a * b;\n        assert(c / a == b);\n        return c;\n    }\n}\n",
  "sourcePath": "/Users/rahulgupta/Workspace/Kindlebit/contracts/ListingFeeProvider.sol",
  "compiler": {
    "name": "solc",
    "version": "0.8.13+commit.abaa5c0e.Emscripten.clang"
  },
  "schemaVersion": "3.4.3",
  "updatedAt": "2022-05-03T13:31:35.964Z",
  "devdoc": {
    "kind": "dev",
    "methods": {
      "getFee(uint256,address,address,address,address)": {
        "details": "Calculate the custom fee based on buyer, seller, game token or combo of these"
      },
      "updateCustomFee(uint256,address,address,address,address)": {
        "details": "Allow operators to update the fee for a custom combo",
        "params": {
          "_newFee": "New fee in percent x 100 (to support decimals)                enter zero for default, 10000 for No Fee"
        }
      },
      "updateFee(uint256)": {
        "details": "Allow operators to update the fee for a custom combo",
        "params": {
          "_newFee": "New fee in percent x 100 (to support decimals)"
        }
      }
    },
    "version": 1
  },
  "userdoc": {
    "kind": "user",
    "methods": {},
    "version": 1
  }
}