{
  "contractName": "NFTListingContract",
  "abi": [
    {
      "anonymous": false,
      "inputs": [
        {
          "indexed": false,
          "internalType": "address",
          "name": "_contract",
          "type": "address"
        },
        {
          "indexed": false,
          "internalType": "uint256",
          "name": "_tokenId",
          "type": "uint256"
        },
        {
          "indexed": false,
          "internalType": "uint256",
          "name": "_modifiedAt",
          "type": "uint256"
        },
        {
          "indexed": false,
          "internalType": "uint256",
          "name": "_expiry",
          "type": "uint256"
        }
      ],
      "name": "LogItemExtended",
      "type": "event"
    },
    {
      "anonymous": false,
      "inputs": [
        {
          "indexed": false,
          "internalType": "address",
          "name": "_buyer",
          "type": "address"
        },
        {
          "indexed": false,
          "internalType": "address",
          "name": "_seller",
          "type": "address"
        },
        {
          "indexed": false,
          "internalType": "address",
          "name": "_contract",
          "type": "address"
        },
        {
          "indexed": false,
          "internalType": "uint256",
          "name": "_tokenId",
          "type": "uint256"
        },
        {
          "indexed": false,
          "internalType": "uint256",
          "name": "_price",
          "type": "uint256"
        },
        {
          "indexed": false,
          "internalType": "enum NFTListingContract.Currency",
          "name": "_currency",
          "type": "uint8"
        },
        {
          "indexed": false,
          "internalType": "uint256",
          "name": "_soldAt",
          "type": "uint256"
        }
      ],
      "name": "LogItemSold",
      "type": "event"
    },
    {
      "anonymous": false,
      "inputs": [
        {
          "indexed": false,
          "internalType": "address",
          "name": "_seller",
          "type": "address"
        },
        {
          "indexed": false,
          "internalType": "address",
          "name": "_contract",
          "type": "address"
        },
        {
          "indexed": false,
          "internalType": "uint256",
          "name": "_tokenId",
          "type": "uint256"
        },
        {
          "indexed": false,
          "internalType": "uint256",
          "name": "_withdrawnAt",
          "type": "uint256"
        }
      ],
      "name": "LogItemWithdrawn",
      "type": "event"
    },
    {
      "anonymous": false,
      "inputs": [
        {
          "indexed": false,
          "internalType": "address",
          "name": "_seller",
          "type": "address"
        },
        {
          "indexed": false,
          "internalType": "address",
          "name": "_contract",
          "type": "address"
        },
        {
          "indexed": false,
          "internalType": "uint256",
          "name": "_tokenId",
          "type": "uint256"
        },
        {
          "indexed": false,
          "internalType": "uint256",
          "name": "_createdAt",
          "type": "uint256"
        },
        {
          "indexed": false,
          "internalType": "uint256",
          "name": "_expiry",
          "type": "uint256"
        }
      ],
      "name": "LogListingCreated",
      "type": "event"
    },
    {
      "anonymous": false,
      "inputs": [
        {
          "indexed": false,
          "internalType": "address",
          "name": "_seller",
          "type": "address"
        },
        {
          "indexed": false,
          "internalType": "address",
          "name": "_contract",
          "type": "address"
        },
        {
          "indexed": false,
          "internalType": "uint256",
          "name": "_tokenId",
          "type": "uint256"
        },
        {
          "indexed": false,
          "internalType": "uint256",
          "name": "_createdAt",
          "type": "uint256"
        },
        {
          "indexed": false,
          "internalType": "uint256",
          "name": "_expiry",
          "type": "uint256"
        }
      ],
      "name": "LogListingExtended",
      "type": "event"
    },
    {
      "anonymous": false,
      "inputs": [
        {
          "indexed": false,
          "internalType": "address",
          "name": "operator",
          "type": "address"
        }
      ],
      "name": "OperatorAdded",
      "type": "event"
    },
    {
      "anonymous": false,
      "inputs": [
        {
          "indexed": false,
          "internalType": "address",
          "name": "operator",
          "type": "address"
        }
      ],
      "name": "OperatorRemoved",
      "type": "event"
    },
    {
      "anonymous": false,
      "inputs": [
        {
          "indexed": true,
          "internalType": "address",
          "name": "previousOwner",
          "type": "address"
        }
      ],
      "name": "OwnershipRenounced",
      "type": "event"
    },
    {
      "anonymous": false,
      "inputs": [
        {
          "indexed": true,
          "internalType": "address",
          "name": "previousOwner",
          "type": "address"
        },
        {
          "indexed": true,
          "internalType": "address",
          "name": "newOwner",
          "type": "address"
        }
      ],
      "name": "OwnershipTransferred",
      "type": "event"
    },
    {
      "inputs": [],
      "name": "FeeProvider",
      "outputs": [
        {
          "internalType": "contract ListingFeeProvider",
          "name": "",
          "type": "address"
        }
      ],
      "stateMutability": "view",
      "type": "function"
    },
    {
      "inputs": [],
      "name": "MAX_OPS",
      "outputs": [
        {
          "internalType": "uint256",
          "name": "",
          "type": "uint256"
        }
      ],
      "stateMutability": "view",
      "type": "function"
    },
    {
      "inputs": [],
      "name": "NFTListing",
      "outputs": [
        {
          "internalType": "contract Whitelist",
          "name": "",
          "type": "address"
        }
      ],
      "stateMutability": "view",
      "type": "function"
    },
    {
      "inputs": [],
      "name": "WETH",
      "outputs": [
        {
          "internalType": "address",
          "name": "",
          "type": "address"
        }
      ],
      "stateMutability": "view",
      "type": "function"
    },
    {
      "inputs": [
        {
          "internalType": "address",
          "name": "_newOperator",
          "type": "address"
        }
      ],
      "name": "addOperator",
      "outputs": [],
      "stateMutability": "nonpayable",
      "type": "function"
    },
    {
      "inputs": [],
      "name": "defaultExpiry",
      "outputs": [
        {
          "internalType": "uint256",
          "name": "",
          "type": "uint256"
        }
      ],
      "stateMutability": "view",
      "type": "function"
    },
    {
      "inputs": [
        {
          "internalType": "address",
          "name": "",
          "type": "address"
        }
      ],
      "name": "isOperator",
      "outputs": [
        {
          "internalType": "bool",
          "name": "",
          "type": "bool"
        }
      ],
      "stateMutability": "view",
      "type": "function"
    },
    {
      "inputs": [
        {
          "internalType": "bytes32",
          "name": "",
          "type": "bytes32"
        }
      ],
      "name": "listings",
      "outputs": [
        {
          "internalType": "enum NFTListingContract.Currency",
          "name": "currency",
          "type": "uint8"
        },
        {
          "internalType": "address",
          "name": "seller",
          "type": "address"
        },
        {
          "internalType": "address",
          "name": "token",
          "type": "address"
        },
        {
          "internalType": "uint256",
          "name": "tokenId",
          "type": "uint256"
        },
        {
          "internalType": "uint256",
          "name": "price",
          "type": "uint256"
        },
        {
          "internalType": "uint256",
          "name": "createdAt",
          "type": "uint256"
        },
        {
          "internalType": "uint256",
          "name": "expiry",
          "type": "uint256"
        }
      ],
      "stateMutability": "view",
      "type": "function"
    },
    {
      "inputs": [
        {
          "internalType": "uint256",
          "name": "",
          "type": "uint256"
        }
      ],
      "name": "operators",
      "outputs": [
        {
          "internalType": "address",
          "name": "",
          "type": "address"
        }
      ],
      "stateMutability": "view",
      "type": "function"
    },
    {
      "inputs": [],
      "name": "owner",
      "outputs": [
        {
          "internalType": "address",
          "name": "",
          "type": "address"
        }
      ],
      "stateMutability": "view",
      "type": "function"
    },
    {
      "inputs": [],
      "name": "removeAllOps",
      "outputs": [],
      "stateMutability": "nonpayable",
      "type": "function"
    },
    {
      "inputs": [
        {
          "internalType": "address",
          "name": "_operator",
          "type": "address"
        }
      ],
      "name": "removeOperator",
      "outputs": [],
      "stateMutability": "nonpayable",
      "type": "function"
    },
    {
      "inputs": [],
      "name": "renounceOwnership",
      "outputs": [],
      "stateMutability": "nonpayable",
      "type": "function"
    },
    {
      "inputs": [
        {
          "internalType": "address",
          "name": "_newOwner",
          "type": "address"
        }
      ],
      "name": "transferOwnership",
      "outputs": [],
      "stateMutability": "nonpayable",
      "type": "function"
    },
    {
      "inputs": [
        {
          "internalType": "address",
          "name": "_contract",
          "type": "address"
        },
        {
          "internalType": "uint256",
          "name": "_tokenId",
          "type": "uint256"
        }
      ],
      "name": "getHashKey",
      "outputs": [
        {
          "internalType": "bytes32",
          "name": "key",
          "type": "bytes32"
        }
      ],
      "stateMutability": "pure",
      "type": "function"
    },
    {
      "inputs": [
        {
          "internalType": "uint256",
          "name": "_price",
          "type": "uint256"
        },
        {
          "internalType": "address",
          "name": "_currency",
          "type": "address"
        },
        {
          "internalType": "address",
          "name": "_buyer",
          "type": "address"
        },
        {
          "internalType": "address",
          "name": "_seller",
          "type": "address"
        },
        {
          "internalType": "address",
          "name": "_token",
          "type": "address"
        }
      ],
      "name": "getFee",
      "outputs": [
        {
          "internalType": "uint256",
          "name": "percent",
          "type": "uint256"
        },
        {
          "internalType": "uint256",
          "name": "fee",
          "type": "uint256"
        }
      ],
      "stateMutability": "view",
      "type": "function"
    },
    {
      "inputs": [
        {
          "internalType": "address",
          "name": "_operator",
          "type": "address"
        },
        {
          "internalType": "address",
          "name": "_from",
          "type": "address"
        },
        {
          "internalType": "uint256",
          "name": "_tokenId",
          "type": "uint256"
        },
        {
          "internalType": "bytes",
          "name": "_extraData",
          "type": "bytes"
        }
      ],
      "name": "onERC721Received",
      "outputs": [
        {
          "internalType": "bytes4",
          "name": "",
          "type": "bytes4"
        }
      ],
      "stateMutability": "nonpayable",
      "type": "function"
    },
    {
      "inputs": [
        {
          "internalType": "address",
          "name": "_from",
          "type": "address"
        },
        {
          "internalType": "uint256",
          "name": "_tokenId",
          "type": "uint256"
        },
        {
          "internalType": "bytes",
          "name": "_extraData",
          "type": "bytes"
        }
      ],
      "name": "onERC721Received",
      "outputs": [
        {
          "internalType": "bytes4",
          "name": "",
          "type": "bytes4"
        }
      ],
      "stateMutability": "nonpayable",
      "type": "function"
    },
    {
      "inputs": [
        {
          "internalType": "address",
          "name": "_contract",
          "type": "address"
        },
        {
          "internalType": "uint256",
          "name": "_tokenId",
          "type": "uint256"
        }
      ],
      "name": "extendItem",
      "outputs": [
        {
          "internalType": "bool",
          "name": "",
          "type": "bool"
        }
      ],
      "stateMutability": "nonpayable",
      "type": "function"
    },
    {
      "inputs": [
        {
          "internalType": "address",
          "name": "_contract",
          "type": "address"
        },
        {
          "internalType": "uint256",
          "name": "_tokenId",
          "type": "uint256"
        }
      ],
      "name": "withdrawItem",
      "outputs": [],
      "stateMutability": "nonpayable",
      "type": "function"
    },
    {
      "inputs": [
        {
          "internalType": "address",
          "name": "_token",
          "type": "address"
        },
        {
          "internalType": "uint256",
          "name": "_tokenId",
          "type": "uint256"
        }
      ],
      "name": "buyWithETH",
      "outputs": [],
      "stateMutability": "payable",
      "type": "function"
    },
    {
      "inputs": [
        {
          "internalType": "address",
          "name": "_newAddr",
          "type": "address"
        }
      ],
      "name": "updateFeeProvider",
      "outputs": [],
      "stateMutability": "nonpayable",
      "type": "function"
    },
    {
      "inputs": [
        {
          "internalType": "address",
          "name": "_newAddr",
          "type": "address"
        }
      ],
      "name": "updateWhitelist",
      "outputs": [],
      "stateMutability": "nonpayable",
      "type": "function"
    },
    {
      "inputs": [
        {
          "internalType": "uint256",
          "name": "_days",
          "type": "uint256"
        }
      ],
      "name": "updateExpiry",
      "outputs": [],
      "stateMutability": "nonpayable",
      "type": "function"
    },
    {
      "inputs": [],
      "name": "withdrawETH",
      "outputs": [],
      "stateMutability": "payable",
      "type": "function"
    }
  ],
  "bytecode": "0x6080604052601460025573a8cedd578fed14f07c3737bf42ad6f04faae3978600460006101000a81548173ffffffffffffffffffffffffffffffffffffffff021916908373ffffffffffffffffffffffffffffffffffffffff1602179055507358d36571250d91ef5ce90869e66cd553785364a2600560006101000a81548173ffffffffffffffffffffffffffffffffffffffff021916908373ffffffffffffffffffffffffffffffffffffffff16021790555073c02aaa39b223fe8d0a0e5c4f27ead9083c756cc2600660006101000a81548173ffffffffffffffffffffffffffffffffffffffff021916908373ffffffffffffffffffffffffffffffffffffffff16021790555062093a8060075534801561011b57600080fd5b50336000806101000a81548173ffffffffffffffffffffffffffffffffffffffff021916908373ffffffffffffffffffffffffffffffffffffffff160217905550613c018061016b6000396000f3fe6080604052600436106101665760003560e01c806395a51669116100d1578063c18b8db41161008a578063e086e5ec11610064578063e086e5ec14610522578063e28d49061461052c578063f0b9e5ba14610569578063f2fde38b146105a657610166565b8063c18b8db414610478578063d359f82c146104bb578063d71cf1e4146104e457610166565b806395a516691461039d5780639870d7fe146103b9578063ac8a584a146103e2578063ad5c46481461040b578063bc14016b14610436578063bdf45c781461044d57610166565b8063715018a611610123578063715018a61461029d578063786431c1146102b45780637a6ba98c146102df5780638cfb30881461031c5780638da5cb5b1461034757806394c89af51461037257610166565b8063150b7a021461016b5780632bcb849c146101a85780633d0f963e146101d15780633e9f9664146101fa578063542cfdf0146102235780636d70f7ae14610260575b600080fd5b34801561017757600080fd5b50610192600480360381019061018d91906129d4565b6105cf565b60405161019f9190612a92565b60405180910390f35b3480156101b457600080fd5b506101cf60048036038101906101ca9190612aad565b6105ef565b005b3480156101dd57600080fd5b506101f860048036038101906101f39190612aad565b610784565b005b34801561020657600080fd5b50610221600480360381019061021c9190612ada565b610919565b005b34801561022f57600080fd5b5061024a60048036038101906102459190612ada565b610bfd565b6040516102579190612b35565b60405180910390f35b34801561026c57600080fd5b5061028760048036038101906102829190612aad565b610e8b565b6040516102949190612b35565b60405180910390f35b3480156102a957600080fd5b506102b2610eab565b005b3480156102c057600080fd5b506102c9610fa9565b6040516102d69190612b5f565b60405180910390f35b3480156102eb57600080fd5b5061030660048036038101906103019190612ada565b610faf565b6040516103139190612b93565b60405180910390f35b34801561032857600080fd5b50610331610fc3565b60405161033e9190612b5f565b60405180910390f35b34801561035357600080fd5b5061035c610fc9565b6040516103699190612bbd565b60405180910390f35b34801561037e57600080fd5b50610387610fed565b6040516103949190612c37565b60405180910390f35b6103b760048036038101906103b29190612ada565b611013565b005b3480156103c557600080fd5b506103e060048036038101906103db9190612aad565b611102565b005b3480156103ee57600080fd5b5061040960048036038101906104049190612aad565b611394565b005b34801561041757600080fd5b506104206116e8565b60405161042d9190612bbd565b60405180910390f35b34801561044257600080fd5b5061044b61170e565b005b34801561045957600080fd5b50610462611830565b60405161046f9190612c73565b60405180910390f35b34801561048457600080fd5b5061049f600480360381019061049a9190612cba565b611856565b6040516104b29796959493929190612d5e565b60405180910390f35b3480156104c757600080fd5b506104e260048036038101906104dd9190612dcd565b6118e5565b005b3480156104f057600080fd5b5061050b60048036038101906105069190612dfa565b611a22565b604051610519929190612e75565b60405180910390f35b61052a611ada565b005b34801561053857600080fd5b50610553600480360381019061054e9190612dcd565b611b9b565b6040516105609190612bbd565b60405180910390f35b34801561057557600080fd5b50610590600480360381019061058b9190612e9e565b611bda565b60405161059d9190612a92565b60405180910390f35b3480156105b257600080fd5b506105cd60048036038101906105c89190612aad565b611bf9565b005b60006105dd84338585611c5d565b63150b7a0260e01b9050949350505050565b600360003373ffffffffffffffffffffffffffffffffffffffff1673ffffffffffffffffffffffffffffffffffffffff16815260200190815260200160002060009054906101000a900460ff1680610692575060008054906101000a900473ffffffffffffffffffffffffffffffffffffffff1673ffffffffffffffffffffffffffffffffffffffff163373ffffffffffffffffffffffffffffffffffffffff16145b6106d1576040517f08c379a00000000000000000000000000000000000000000000000000000000081526004016106c890612f90565b60405180910390fd5b600073ffffffffffffffffffffffffffffffffffffffff168173ffffffffffffffffffffffffffffffffffffffff1603610740576040517f08c379a000000000000000000000000000000000000000000000000000000000815260040161073790612ffc565b60405180910390fd5b80600560006101000a81548173ffffffffffffffffffffffffffffffffffffffff021916908373ffffffffffffffffffffffffffffffffffffffff16021790555050565b600360003373ffffffffffffffffffffffffffffffffffffffff1673ffffffffffffffffffffffffffffffffffffffff16815260200190815260200160002060009054906101000a900460ff1680610827575060008054906101000a900473ffffffffffffffffffffffffffffffffffffffff1673ffffffffffffffffffffffffffffffffffffffff163373ffffffffffffffffffffffffffffffffffffffff16145b610866576040517f08c379a000000000000000000000000000000000000000000000000000000000815260040161085d90612f90565b60405180910390fd5b600073ffffffffffffffffffffffffffffffffffffffff168173ffffffffffffffffffffffffffffffffffffffff16036108d5576040517f08c379a00000000000000000000000000000000000000000000000000000000081526004016108cc90612ffc565b60405180910390fd5b80600460006101000a81548173ffffffffffffffffffffffffffffffffffffffff021916908373ffffffffffffffffffffffffffffffffffffffff16021790555050565b81600460009054906101000a900473ffffffffffffffffffffffffffffffffffffffff1673ffffffffffffffffffffffffffffffffffffffff16633af32abf826040518263ffffffff1660e01b81526004016109759190612bbd565b602060405180830381865afa158015610992573d6000803e3d6000fd5b505050506040513d601f19601f820116820180604052508101906109b69190613048565b6109f5576040517f08c379a00000000000000000000000000000000000000000000000000000000081526004016109ec906130c1565b60405180910390fd5b6000610a018484611dbe565b905060006008600083815260200190815260200160002060000160019054906101000a900473ffffffffffffffffffffffffffffffffffffffff1690503373ffffffffffffffffffffffffffffffffffffffff168173ffffffffffffffffffffffffffffffffffffffff1614610aac576040517f08c379a0000000000000000000000000000000000000000000000000000000008152600401610aa390613153565b60405180910390fd5b60008590508073ffffffffffffffffffffffffffffffffffffffff166323b872dd3084886040518463ffffffff1660e01b8152600401610aee93929190613173565b600060405180830381600087803b158015610b0857600080fd5b505af1158015610b1c573d6000803e3d6000fd5b505050507f96dc2ae07e2daa042ed8ac1696a906aa4f95f7adbc275eccf4bf8440e2584ee682878742604051610b5594939291906131aa565b60405180910390a160086000848152602001908152602001600020600080820160006101000a81549060ff02191690556000820160016101000a81549073ffffffffffffffffffffffffffffffffffffffff02191690556001820160006101000a81549073ffffffffffffffffffffffffffffffffffffffff021916905560028201600090556003820160009055600482016000905560058201600090555050505050505050565b600082600460009054906101000a900473ffffffffffffffffffffffffffffffffffffffff1673ffffffffffffffffffffffffffffffffffffffff16633af32abf826040518263ffffffff1660e01b8152600401610c5b9190612bbd565b602060405180830381865afa158015610c78573d6000803e3d6000fd5b505050506040513d601f19601f82011682018060405250810190610c9c9190613048565b610cdb576040517f08c379a0000000000000000000000000000000000000000000000000000000008152600401610cd2906130c1565b60405180910390fd5b6000610ce78585611dbe565b905060006008600083815260200190815260200160002060000160019054906101000a900473ffffffffffffffffffffffffffffffffffffffff1690503373ffffffffffffffffffffffffffffffffffffffff168173ffffffffffffffffffffffffffffffffffffffff1614610d92576040517f08c379a0000000000000000000000000000000000000000000000000000000008152600401610d899061323b565b60405180910390fd5b6000600860008481526020019081526020016000206005015411610deb576040517f08c379a0000000000000000000000000000000000000000000000000000000008152600401610de2906132a7565b60405180910390fd5b60075442610df991906132f6565b60086000848152602001908152602001600020600501819055507f1ff0fc7b0f4ab39acdfc6cc0499d69cff5efdc2b4b2280706342a6c0e51ac4fe81878760086000878152602001908152602001600020600401546008600088815260200190815260200160002060050154604051610e7695949392919061334c565b60405180910390a16001935050505092915050565b60036020528060005260406000206000915054906101000a900460ff1681565b60008054906101000a900473ffffffffffffffffffffffffffffffffffffffff1673ffffffffffffffffffffffffffffffffffffffff163373ffffffffffffffffffffffffffffffffffffffff1614610f0357600080fd5b60008054906101000a900473ffffffffffffffffffffffffffffffffffffffff1673ffffffffffffffffffffffffffffffffffffffff167ff8df31144d9c2f0f6b59d69b8b98abd5459d07f2742c4df920b25aae33c6482060405160405180910390a260008060006101000a81548173ffffffffffffffffffffffffffffffffffffffff021916908373ffffffffffffffffffffffffffffffffffffffff160217905550565b60025481565b6000610fbb8383611dbe565b905092915050565b60075481565b60008054906101000a900473ffffffffffffffffffffffffffffffffffffffff1681565b600560009054906101000a900473ffffffffffffffffffffffffffffffffffffffff1681565b81600460009054906101000a900473ffffffffffffffffffffffffffffffffffffffff1673ffffffffffffffffffffffffffffffffffffffff16633af32abf826040518263ffffffff1660e01b815260040161106f9190612bbd565b602060405180830381865afa15801561108c573d6000803e3d6000fd5b505050506040513d601f19601f820116820180604052508101906110b09190613048565b6110ef576040517f08c379a00000000000000000000000000000000000000000000000000000000081526004016110e6906130c1565b60405180910390fd5b6110fd838360003433611df1565b505050565b60008054906101000a900473ffffffffffffffffffffffffffffffffffffffff1673ffffffffffffffffffffffffffffffffffffffff163373ffffffffffffffffffffffffffffffffffffffff161461115a57600080fd5b600073ffffffffffffffffffffffffffffffffffffffff168173ffffffffffffffffffffffffffffffffffffffff16036111c9576040517f08c379a00000000000000000000000000000000000000000000000000000000081526004016111c0906133eb565b60405180910390fd5b600360008273ffffffffffffffffffffffffffffffffffffffff1673ffffffffffffffffffffffffffffffffffffffff16815260200190815260200160002060009054906101000a900460ff1615611256576040517f08c379a000000000000000000000000000000000000000000000000000000000815260040161124d90613457565b60405180910390fd5b6002546001805490501061129f576040517f08c379a0000000000000000000000000000000000000000000000000000000008152600401611296906134c3565b60405180910390fd5b6001819080600181540180825580915050600190039060005260206000200160009091909190916101000a81548173ffffffffffffffffffffffffffffffffffffffff021916908373ffffffffffffffffffffffffffffffffffffffff1602179055506001600360008373ffffffffffffffffffffffffffffffffffffffff1673ffffffffffffffffffffffffffffffffffffffff16815260200190815260200160002060006101000a81548160ff0219169083151502179055507fac6fa858e9350a46cec16539926e0fde25b7629f84b5a72bffaae4df888ae86d816040516113899190612bbd565b60405180910390a150565b60008054906101000a900473ffffffffffffffffffffffffffffffffffffffff1673ffffffffffffffffffffffffffffffffffffffff163373ffffffffffffffffffffffffffffffffffffffff16146113ec57600080fd5b600060018054905011611434576040517f08c379a000000000000000000000000000000000000000000000000000000000815260040161142b9061352f565b60405180910390fd5b600360008273ffffffffffffffffffffffffffffffffffffffff1673ffffffffffffffffffffffffffffffffffffffff16815260200190815260200160002060009054906101000a900460ff166114c0576040517f08c379a00000000000000000000000000000000000000000000000000000000081526004016114b79061359b565b60405180910390fd5b600060018080805490506114d491906135bb565b815481106114e5576114e46135ef565b5b9060005260206000200160009054906101000a900473ffffffffffffffffffffffffffffffffffffffff16905060005b600180549050811015611604578273ffffffffffffffffffffffffffffffffffffffff166001828154811061154d5761154c6135ef565b5b9060005260206000200160009054906101000a900473ffffffffffffffffffffffffffffffffffffffff1673ffffffffffffffffffffffffffffffffffffffff16036115f15781600182815481106115a8576115a76135ef565b5b9060005260206000200160006101000a81548173ffffffffffffffffffffffffffffffffffffffff021916908373ffffffffffffffffffffffffffffffffffffffff1602179055505b80806115fc9061361e565b915050611515565b50600180808054905061161791906135bb565b81548110611628576116276135ef565b5b9060005260206000200160006101000a81549073ffffffffffffffffffffffffffffffffffffffff02191690556000600360008473ffffffffffffffffffffffffffffffffffffffff1673ffffffffffffffffffffffffffffffffffffffff16815260200190815260200160002060006101000a81548160ff0219169083151502179055507f80c0b871b97b595b16a7741c1b06fed0c6f6f558639f18ccbce50724325dc40d826040516116dc9190612bbd565b60405180910390a15050565b600660009054906101000a900473ffffffffffffffffffffffffffffffffffffffff1681565b60008054906101000a900473ffffffffffffffffffffffffffffffffffffffff1673ffffffffffffffffffffffffffffffffffffffff163373ffffffffffffffffffffffffffffffffffffffff161461176657600080fd5b60005b60018054905081101561181f57600060036000600184815481106117905761178f6135ef565b5b9060005260206000200160009054906101000a900473ffffffffffffffffffffffffffffffffffffffff1673ffffffffffffffffffffffffffffffffffffffff1673ffffffffffffffffffffffffffffffffffffffff16815260200190815260200160002060006101000a81548160ff02191690831515021790555080806118179061361e565b915050611769565b506001600061182e91906127a8565b565b600460009054906101000a900473ffffffffffffffffffffffffffffffffffffffff1681565b60086020528060005260406000206000915090508060000160009054906101000a900460ff16908060000160019054906101000a900473ffffffffffffffffffffffffffffffffffffffff16908060010160009054906101000a900473ffffffffffffffffffffffffffffffffffffffff16908060020154908060030154908060040154908060050154905087565b600360003373ffffffffffffffffffffffffffffffffffffffff1673ffffffffffffffffffffffffffffffffffffffff16815260200190815260200160002060009054906101000a900460ff1680611988575060008054906101000a900473ffffffffffffffffffffffffffffffffffffffff1673ffffffffffffffffffffffffffffffffffffffff163373ffffffffffffffffffffffffffffffffffffffff16145b6119c7576040517f08c379a00000000000000000000000000000000000000000000000000000000081526004016119be90612f90565b60405180910390fd5b60008111611a0a576040517f08c379a0000000000000000000000000000000000000000000000000000000008152600401611a01906136b2565b60405180910390fd5b6201518081611a1991906136d2565b60078190555050565b600080600560009054906101000a900473ffffffffffffffffffffffffffffffffffffffff1673ffffffffffffffffffffffffffffffffffffffff1663d71cf1e488888888886040518663ffffffff1660e01b8152600401611a8895949392919061372c565b6040805180830381865afa158015611aa4573d6000803e3d6000fd5b505050506040513d601f19601f82011682018060405250810190611ac89190613794565b80925081935050509550959350505050565b60008054906101000a900473ffffffffffffffffffffffffffffffffffffffff1673ffffffffffffffffffffffffffffffffffffffff163373ffffffffffffffffffffffffffffffffffffffff1614611b3257600080fd5b60008054906101000a900473ffffffffffffffffffffffffffffffffffffffff1673ffffffffffffffffffffffffffffffffffffffff166108fc349081150290604051600060405180830381858888f19350505050158015611b98573d6000803e3d6000fd5b50565b60018181548110611bab57600080fd5b906000526020600020016000915054906101000a900473ffffffffffffffffffffffffffffffffffffffff1681565b6000611be884338585611c5d565b63f0b9e5ba60e01b90509392505050565b60008054906101000a900473ffffffffffffffffffffffffffffffffffffffff1673ffffffffffffffffffffffffffffffffffffffff163373ffffffffffffffffffffffffffffffffffffffff1614611c5157600080fd5b611c5a816124ac565b50565b82600460009054906101000a900473ffffffffffffffffffffffffffffffffffffffff1673ffffffffffffffffffffffffffffffffffffffff16633af32abf826040518263ffffffff1660e01b8152600401611cb99190612bbd565b602060405180830381865afa158015611cd6573d6000803e3d6000fd5b505050506040513d601f19601f82011682018060405250810190611cfa9190613048565b611d39576040517f08c379a0000000000000000000000000000000000000000000000000000000008152600401611d30906130c1565b60405180910390fd5b600080611d45846125a2565b80935081925050506000816000811115611d6257611d61612ce7565b5b905060008311611da7576040517f08c379a0000000000000000000000000000000000000000000000000000000008152600401611d9e90613820565b60405180910390fd5b611db488888886856125d8565b5050505050505050565b60008282604051602001611dd39291906138a9565b60405160208183030381529060405280519060200120905092915050565b6000611dfd8686611dbe565b905060006008600083815260200190815260200160002060000160009054906101000a900460ff16905060006008600084815260200190815260200160002060000160019054906101000a900473ffffffffffffffffffffffffffffffffffffffff1690506000806000811115611e7757611e76612ce7565b5b876000811115611e8a57611e89612ce7565b5b14611e96576000611eba565b600660009054906101000a900473ffffffffffffffffffffffffffffffffffffffff165b9050866000811115611ecf57611ece612ce7565b5b836000811115611ee257611ee1612ce7565b5b14611f22576040517f08c379a0000000000000000000000000000000000000000000000000000000008152600401611f1990613921565b60405180910390fd5b600086118015611f475750600860008581526020019081526020016000206003015486145b611f86576040517f08c379a0000000000000000000000000000000000000000000000000000000008152600401611f7d90613820565b60405180910390fd5b42600860008681526020019081526020016000206005015411611fde576040517f08c379a0000000000000000000000000000000000000000000000000000000008152600401611fd59061398d565b60405180910390fd5b60008990503073ffffffffffffffffffffffffffffffffffffffff168173ffffffffffffffffffffffffffffffffffffffff16636352211e8b6040518263ffffffff1660e01b81526004016120339190612b5f565b602060405180830381865afa158015612050573d6000803e3d6000fd5b505050506040513d601f19601f8201168201806040525081019061207491906139c2565b73ffffffffffffffffffffffffffffffffffffffff16146120ca576040517f08c379a00000000000000000000000000000000000000000000000000000000081526004016120c190613a3b565b60405180910390fd5b6000808111156120dd576120dc612ce7565b5b8860008111156120f0576120ef612ce7565b5b036121d757600660009054906101000a900473ffffffffffffffffffffffffffffffffffffffff1673ffffffffffffffffffffffffffffffffffffffff166323b872dd87308a6040518463ffffffff1660e01b815260040161215493929190613173565b6020604051808303816000875af1158015612173573d6000803e3d6000fd5b505050506040513d601f19601f820116820180604052508101906121979190613048565b6121d6576040517f08c379a00000000000000000000000000000000000000000000000000000000081526004016121cd90613aa7565b60405180910390fd5b5b8073ffffffffffffffffffffffffffffffffffffffff166323b872dd30888c6040518463ffffffff1660e01b815260040161221493929190613173565b600060405180830381600087803b15801561222e57600080fd5b505af1158015612242573d6000803e3d6000fd5b505050506000612255888489878f611a22565b90508091505060008081111561226e5761226d612ce7565b5b89600081111561228157612280612ce7565b5b0361233d576000600660009054906101000a900473ffffffffffffffffffffffffffffffffffffffff1690508073ffffffffffffffffffffffffffffffffffffffff1663a9059cbb86848c6122d691906135bb565b6040518363ffffffff1660e01b81526004016122f3929190613ac7565b6020604051808303816000875af1158015612312573d6000803e3d6000fd5b505050506040513d601f19601f820116820180604052508101906123369190613048565b50506123c4565b600115158473ffffffffffffffffffffffffffffffffffffffff166108fc838b61236791906135bb565b9081150290604051600060405180830381858888f193505050501515146123c3576040517f08c379a00000000000000000000000000000000000000000000000000000000081526004016123ba90613b3c565b60405180910390fd5b5b7f976e139d6bcf821536d90344e58663fcf4cdca4f3ad0549841c981c8841d93c687858d8d8c8a426040516123ff9796959493929190613b5c565b60405180910390a160086000878152602001908152602001600020600080820160006101000a81549060ff02191690556000820160016101000a81549073ffffffffffffffffffffffffffffffffffffffff02191690556001820160006101000a81549073ffffffffffffffffffffffffffffffffffffffff0219169055600282016000905560038201600090556004820160009055600582016000905550505050505050505050505050565b600073ffffffffffffffffffffffffffffffffffffffff168173ffffffffffffffffffffffffffffffffffffffff16036124e557600080fd5b8073ffffffffffffffffffffffffffffffffffffffff1660008054906101000a900473ffffffffffffffffffffffffffffffffffffffff1673ffffffffffffffffffffffffffffffffffffffff167f8be0079c531659141344cd1fd0a4f28419497f9722a3daafe3b4186f6b6457e060405160405180910390a3806000806101000a81548173ffffffffffffffffffffffffffffffffffffffff021916908373ffffffffffffffffffffffffffffffffffffffff16021790555050565b6000806000604090506125b5818561279a565b91506020816125c491906135bb565b90506125d0818561279a565b925050915091565b60006125e48585611dbe565b905060004290506000600754426125fb91906132f6565b9050836008600085815260200190815260200160002060000160006101000a81548160ff0219169083600081111561263657612635612ce7565b5b0217905550876008600085815260200190815260200160002060000160016101000a81548173ffffffffffffffffffffffffffffffffffffffff021916908373ffffffffffffffffffffffffffffffffffffffff160217905550866008600085815260200190815260200160002060010160006101000a81548173ffffffffffffffffffffffffffffffffffffffff021916908373ffffffffffffffffffffffffffffffffffffffff1602179055508560086000858152602001908152602001600020600201819055508460086000858152602001908152602001600020600301819055508160086000858152602001908152602001600020600401819055508060086000858152602001908152602001600020600501819055507f5843d06b039f1cd55695445ca8d9f81f029d62deb214fea0f4215e983195bf78888888858560405161278895949392919061334c565b60405180910390a15050505050505050565b600082820151905092915050565b50805460008255906000526020600020908101906127c691906127c9565b50565b5b808211156127e25760008160009055506001016127ca565b5090565b6000604051905090565b600080fd5b600080fd5b600073ffffffffffffffffffffffffffffffffffffffff82169050919050565b6000612825826127fa565b9050919050565b6128358161281a565b811461284057600080fd5b50565b6000813590506128528161282c565b92915050565b6000819050919050565b61286b81612858565b811461287657600080fd5b50565b60008135905061288881612862565b92915050565b600080fd5b600080fd5b6000601f19601f8301169050919050565b7f4e487b7100000000000000000000000000000000000000000000000000000000600052604160045260246000fd5b6128e182612898565b810181811067ffffffffffffffff82111715612900576128ff6128a9565b5b80604052505050565b60006129136127e6565b905061291f82826128d8565b919050565b600067ffffffffffffffff82111561293f5761293e6128a9565b5b61294882612898565b9050602081019050919050565b82818337600083830152505050565b600061297761297284612924565b612909565b90508281526020810184848401111561299357612992612893565b5b61299e848285612955565b509392505050565b600082601f8301126129bb576129ba61288e565b5b81356129cb848260208601612964565b91505092915050565b600080600080608085870312156129ee576129ed6127f0565b5b60006129fc87828801612843565b9450506020612a0d87828801612843565b9350506040612a1e87828801612879565b925050606085013567ffffffffffffffff811115612a3f57612a3e6127f5565b5b612a4b878288016129a6565b91505092959194509250565b60007fffffffff0000000000000000000000000000000000000000000000000000000082169050919050565b612a8c81612a57565b82525050565b6000602082019050612aa76000830184612a83565b92915050565b600060208284031215612ac357612ac26127f0565b5b6000612ad184828501612843565b91505092915050565b60008060408385031215612af157612af06127f0565b5b6000612aff85828601612843565b9250506020612b1085828601612879565b9150509250929050565b60008115159050919050565b612b2f81612b1a565b82525050565b6000602082019050612b4a6000830184612b26565b92915050565b612b5981612858565b82525050565b6000602082019050612b746000830184612b50565b92915050565b6000819050919050565b612b8d81612b7a565b82525050565b6000602082019050612ba86000830184612b84565b92915050565b612bb78161281a565b82525050565b6000602082019050612bd26000830184612bae565b92915050565b6000819050919050565b6000612bfd612bf8612bf3846127fa565b612bd8565b6127fa565b9050919050565b6000612c0f82612be2565b9050919050565b6000612c2182612c04565b9050919050565b612c3181612c16565b82525050565b6000602082019050612c4c6000830184612c28565b92915050565b6000612c5d82612c04565b9050919050565b612c6d81612c52565b82525050565b6000602082019050612c886000830184612c64565b92915050565b612c9781612b7a565b8114612ca257600080fd5b50565b600081359050612cb481612c8e565b92915050565b600060208284031215612cd057612ccf6127f0565b5b6000612cde84828501612ca5565b91505092915050565b7f4e487b7100000000000000000000000000000000000000000000000000000000600052602160045260246000fd5b60018110612d2757612d26612ce7565b5b50565b6000819050612d3882612d16565b919050565b6000612d4882612d2a565b9050919050565b612d5881612d3d565b82525050565b600060e082019050612d73600083018a612d4f565b612d806020830189612bae565b612d8d6040830188612bae565b612d9a6060830187612b50565b612da76080830186612b50565b612db460a0830185612b50565b612dc160c0830184612b50565b98975050505050505050565b600060208284031215612de357612de26127f0565b5b6000612df184828501612879565b91505092915050565b600080600080600060a08688031215612e1657612e156127f0565b5b6000612e2488828901612879565b9550506020612e3588828901612843565b9450506040612e4688828901612843565b9350506060612e5788828901612843565b9250506080612e6888828901612843565b9150509295509295909350565b6000604082019050612e8a6000830185612b50565b612e976020830184612b50565b9392505050565b600080600060608486031215612eb757612eb66127f0565b5b6000612ec586828701612843565b9350506020612ed686828701612879565b925050604084013567ffffffffffffffff811115612ef757612ef66127f5565b5b612f03868287016129a6565b9150509250925092565b600082825260208201905092915050565b7f5065726d697373696f6e2064656e6965642e204d75737420626520616e206f7060008201527f657261746f72206f7220746865206f776e65722e000000000000000000000000602082015250565b6000612f7a603483612f0d565b9150612f8582612f1e565b604082019050919050565b60006020820190508181036000830152612fa981612f6d565b9050919050565b7f496e76616c696420636f6e747261637420616464726573732e00000000000000600082015250565b6000612fe6601983612f0d565b9150612ff182612fb0565b602082019050919050565b6000602082019050818103600083015261301581612fd9565b9050919050565b61302581612b1a565b811461303057600080fd5b50565b6000815190506130428161301c565b92915050565b60006020828403121561305e5761305d6127f0565b5b600061306c84828501613033565b91505092915050565b7f436f6e7472616374206e6f7420696e2077686974656c6973742e000000000000600082015250565b60006130ab601a83612f0d565b91506130b682613075565b602082019050919050565b600060208201905081810360008301526130da8161309e565b9050919050565b7f4f6e6c792073656c6c65722063616e207769746864726177206c697374696e6760008201527f2e00000000000000000000000000000000000000000000000000000000000000602082015250565b600061313d602183612f0d565b9150613148826130e1565b604082019050919050565b6000602082019050818103600083015261316c81613130565b9050919050565b60006060820190506131886000830186612bae565b6131956020830185612bae565b6131a26040830184612b50565b949350505050565b60006080820190506131bf6000830187612bae565b6131cc6020830186612bae565b6131d96040830185612b50565b6131e66060830184612b50565b95945050505050565b7f4f6e6c792073656c6c65722063616e20657874656e64206c697374696e672e00600082015250565b6000613225601f83612f0d565b9150613230826131ef565b602082019050919050565b6000602082019050818103600083015261325481613218565b9050919050565b7f4974656d206e6f74206c69737465642e00000000000000000000000000000000600082015250565b6000613291601083612f0d565b915061329c8261325b565b602082019050919050565b600060208201905081810360008301526132c081613284565b9050919050565b7f4e487b7100000000000000000000000000000000000000000000000000000000600052601160045260246000fd5b600061330182612858565b915061330c83612858565b9250827fffffffffffffffffffffffffffffffffffffffffffffffffffffffffffffffff03821115613341576133406132c7565b5b828201905092915050565b600060a0820190506133616000830188612bae565b61336e6020830187612bae565b61337b6040830186612b50565b6133886060830185612b50565b6133956080830184612b50565b9695505050505050565b7f496e76616c6964206e6577206f70657261746f7220616464726573732e000000600082015250565b60006133d5601d83612f0d565b91506133e08261339f565b602082019050919050565b60006020820190508181036000830152613404816133c8565b9050919050565b7f4e6577206f70657261746f72206578697374732e000000000000000000000000600082015250565b6000613441601483612f0d565b915061344c8261340b565b602082019050919050565b6000602082019050818103600083015261347081613434565b9050919050565b7f4f766572666c6f772e0000000000000000000000000000000000000000000000600082015250565b60006134ad600983612f0d565b91506134b882613477565b602082019050919050565b600060208201905081810360008301526134dc816134a0565b9050919050565b7f4e6f206f70657261746f722e0000000000000000000000000000000000000000600082015250565b6000613519600c83612f0d565b9150613524826134e3565b602082019050919050565b600060208201905081810360008301526135488161350c565b9050919050565b7f4e6f7420616e206f70657261746f722e00000000000000000000000000000000600082015250565b6000613585601083612f0d565b91506135908261354f565b602082019050919050565b600060208201905081810360008301526135b481613578565b9050919050565b60006135c682612858565b91506135d183612858565b9250828210156135e4576135e36132c7565b5b828203905092915050565b7f4e487b7100000000000000000000000000000000000000000000000000000000600052603260045260246000fd5b600061362982612858565b91507fffffffffffffffffffffffffffffffffffffffffffffffffffffffffffffffff820361365b5761365a6132c7565b5b600182019050919050565b7f496e76616c6964206e756d626572206f6620646179732e000000000000000000600082015250565b600061369c601783612f0d565b91506136a782613666565b602082019050919050565b600060208201905081810360008301526136cb8161368f565b9050919050565b60006136dd82612858565b91506136e883612858565b9250817fffffffffffffffffffffffffffffffffffffffffffffffffffffffffffffffff0483118215151615613721576137206132c7565b5b828202905092915050565b600060a0820190506137416000830188612b50565b61374e6020830187612bae565b61375b6040830186612bae565b6137686060830185612bae565b6137756080830184612bae565b9695505050505050565b60008151905061378e81612862565b92915050565b600080604083850312156137ab576137aa6127f0565b5b60006137b98582860161377f565b92505060206137ca8582860161377f565b9150509250929050565b7f496e76616c69642070726963652e000000000000000000000000000000000000600082015250565b600061380a600e83612f0d565b9150613815826137d4565b602082019050919050565b60006020820190508181036000830152613839816137fd565b9050919050565b60008160601b9050919050565b600061385882613840565b9050919050565b600061386a8261384d565b9050919050565b61388261387d8261281a565b61385f565b82525050565b6000819050919050565b6138a361389e82612858565b613888565b82525050565b60006138b58285613871565b6014820191506138c58284613892565b6020820191508190509392505050565b7f57726f6e672063757272656e63792e0000000000000000000000000000000000600082015250565b600061390b600f83612f0d565b9150613916826138d5565b602082019050919050565b6000602082019050818103600083015261393a816138fe565b9050919050565b7f4974656d20657870697265642e00000000000000000000000000000000000000600082015250565b6000613977600d83612f0d565b915061398282613941565b602082019050919050565b600060208201905081810360008301526139a68161396a565b9050919050565b6000815190506139bc8161282c565b92915050565b6000602082840312156139d8576139d76127f0565b5b60006139e6848285016139ad565b91505092915050565b7f4974656d206973206e6f7420617661696c61626c652e00000000000000000000600082015250565b6000613a25601683612f0d565b9150613a30826139ef565b602082019050919050565b60006020820190508181036000830152613a5481613a18565b9050919050565b7f57455448207061796d656e74207472616e73666572206661696c65642e000000600082015250565b6000613a91601d83612f0d565b9150613a9c82613a5b565b602082019050919050565b60006020820190508181036000830152613ac081613a84565b9050919050565b6000604082019050613adc6000830185612bae565b613ae96020830184612b50565b9392505050565b7f5472616e7366657220746f2073656c6c6572206661696c65642e000000000000600082015250565b6000613b26601a83612f0d565b9150613b3182613af0565b602082019050919050565b60006020820190508181036000830152613b5581613b19565b9050919050565b600060e082019050613b71600083018a612bae565b613b7e6020830189612bae565b613b8b6040830188612bae565b613b986060830187612b50565b613ba56080830186612b50565b613bb260a0830185612d4f565b613bbf60c0830184612b50565b9897505050505050505056fea2646970667358221220ebaac39b18af3afb319f0466dfe6a0121b0e91bcb7d79ba2f7631f58f6d466c464736f6c634300080d0033",
  "immutableReferences": {},
  "source": "// SPDX-License-Identifier: MIT\n\npragma solidity ^0.8.0;\n\nimport \"./Operator.sol\";\nimport \"./Whitelist.sol\";\nimport \"./ListingFeeProvider.sol\";\nimport \"openzeppelin-contracts/token/ERC721/IERC721.sol\";\nimport \"openzeppelin-contracts/token/ERC20/IERC20.sol\";\n\n// @title ERC-721 Non-Fungible Token Standard\n// @dev Include interface for both new and old functions\ninterface ERC721TokenReceiver {\n    function onERC721Received(\n        address _from,\n        uint256 _tokenId,\n        bytes memory data\n    ) external returns (bytes4);\n\n    function onERC721Received(\n        address _operator,\n        address _from,\n        uint256 _tokenId,\n        bytes memory data\n    ) external returns (bytes4);\n}\n\ncontract NFTListingContract is Operator {\n    // Callback values from zepellin ERC721Receiver.sol\n    // Old ver: bytes4(keccak256(\"onERC721Received(address,uint256,bytes)\")) = 0xf0b9e5ba;\n    bytes4 constant ERC721_RECEIVED_OLD = 0xf0b9e5ba;\n    // New ver w/ operator: bytes4(keccak256(\"onERC721Received(address,address,uint256,bytes)\")) = 0xf0b9e5ba;\n    bytes4 constant ERC721_RECEIVED = 0x150b7a02;\n\n    Whitelist public NFTListing =\n        Whitelist(0xA8CedD578fed14f07C3737bF42AD6f04FAAE3978); // Main Net\n    ListingFeeProvider public FeeProvider =\n        ListingFeeProvider(0x58D36571250D91eF5CE90869E66Cd553785364a2); // Main Net\n\n    address public WETH = 0xC02aaA39b223FE8D0A0e5C4F27eAD9083C756Cc2; //Main Net\n\n    uint256 public defaultExpiry = 7 days; // default expiry is 7 days\n\n    enum Currency {\n        WETH\n    }\n\n    struct Listing {\n        Currency currency; // WETH\n        address seller; // seller address\n        address token; // token contract\n        uint256 tokenId; // token id\n        uint256 price; // Big number in WETH\n        uint256 createdAt; // timestamp\n        uint256 expiry; // createdAt + defaultExpiry\n    }\n\n    mapping(bytes32 => Listing) public listings;\n\n    event LogListingCreated(\n        address _seller,\n        address _contract,\n        uint256 _tokenId,\n        uint256 _createdAt,\n        uint256 _expiry\n    );\n    event LogListingExtended(\n        address _seller,\n        address _contract,\n        uint256 _tokenId,\n        uint256 _createdAt,\n        uint256 _expiry\n    );\n    event LogItemSold(\n        address _buyer,\n        address _seller,\n        address _contract,\n        uint256 _tokenId,\n        uint256 _price,\n        Currency _currency,\n        uint256 _soldAt\n    );\n    event LogItemWithdrawn(\n        address _seller,\n        address _contract,\n        uint256 _tokenId,\n        uint256 _withdrawnAt\n    );\n    event LogItemExtended(\n        address _contract,\n        uint256 _tokenId,\n        uint256 _modifiedAt,\n        uint256 _expiry\n    );\n\n    modifier onlyWhitelisted(address _contract) {\n        require(\n            NFTListing.isWhitelisted(_contract),\n            \"Contract not in whitelist.\"\n        );\n        _;\n    }\n\n    function getHashKey(address _contract, uint256 _tokenId)\n        public\n        pure\n        returns (bytes32 key)\n    {\n        key = _getHashKey(_contract, _tokenId);\n    }\n\n    function getFee(\n        uint256 _price,\n        address _currency,\n        address _buyer,\n        address _seller,\n        address _token\n    ) public view returns (uint256 percent, uint256 fee) {\n        (percent, fee) = FeeProvider.getFee(\n            _price,\n            _currency,\n            _buyer,\n            _seller,\n            _token\n        );\n    }\n\n    function onERC721Received(\n        address _from,\n        uint256 _tokenId,\n        bytes memory _extraData\n    ) external returns (bytes4) {\n        _deposit(_from, msg.sender, _tokenId, _extraData);\n        return ERC721_RECEIVED_OLD;\n    }\n\n    function onERC721Received(\n        address _operator,\n        address _from,\n        uint256 _tokenId,\n        bytes memory _extraData\n    ) external returns (bytes4) {\n        _deposit(_from, msg.sender, _tokenId, _extraData);\n        return ERC721_RECEIVED;\n    }\n\n    function extendItem(address _contract, uint256 _tokenId)\n        public\n        onlyWhitelisted(_contract)\n        returns (bool)\n    {\n        bytes32 key = _getHashKey(_contract, _tokenId);\n        address seller = listings[key].seller;\n\n        require(seller == msg.sender, \"Only seller can extend listing.\");\n        require(listings[key].expiry > 0, \"Item not listed.\");\n\n        listings[key].expiry = block.timestamp + defaultExpiry;\n\n        emit LogListingExtended(\n            seller,\n            _contract,\n            _tokenId,\n            listings[key].createdAt,\n            listings[key].expiry\n        );\n\n        return true;\n    }\n\n    function withdrawItem(address _contract, uint256 _tokenId)\n        public\n        onlyWhitelisted(_contract)\n    {\n        bytes32 key = _getHashKey(_contract, _tokenId);\n        address seller = listings[key].seller;\n\n        require(seller == msg.sender, \"Only seller can withdraw listing.\");\n\n        IERC721 nftToken = IERC721(_contract);\n        nftToken.transferFrom(address(this), seller, _tokenId);\n\n        emit LogItemWithdrawn(seller, _contract, _tokenId, block.timestamp);\n\n        delete (listings[key]);\n    }\n\n    function buyWithETH(address _token, uint256 _tokenId)\n        public\n        payable\n        onlyWhitelisted(_token)\n    {\n        _buy(_token, _tokenId, Currency.WETH, msg.value, msg.sender);\n    }\n\n    function updateFeeProvider(address _newAddr) public onlyOperator {\n        require(_newAddr != address(0), \"Invalid contract address.\");\n        FeeProvider = ListingFeeProvider(_newAddr);\n    }\n\n    function updateWhitelist(address _newAddr) public onlyOperator {\n        require(_newAddr != address(0), \"Invalid contract address.\");\n        NFTListing = Whitelist(_newAddr);\n    }\n\n    function updateExpiry(uint256 _days) public onlyOperator {\n        require(_days > 0, \"Invalid number of days.\");\n        defaultExpiry = _days * 1 days;\n    }\n\n    function withdrawETH() public payable onlyOwner {\n        payable(owner).transfer(msg.value);\n    }\n\n    function _getHashKey(address _contract, uint256 _tokenId)\n        internal\n        pure\n        returns (bytes32 key)\n    {\n        key = keccak256(abi.encodePacked(_contract, _tokenId));\n    }\n\n    function _newListing(\n        address _seller,\n        address _contract,\n        uint256 _tokenId,\n        uint256 _price,\n        Currency _currency\n    ) internal {\n        bytes32 key = _getHashKey(_contract, _tokenId);\n        uint256 createdAt = block.timestamp;\n        uint256 expiry = block.timestamp + defaultExpiry;\n        listings[key].currency = _currency;\n        listings[key].seller = _seller;\n        listings[key].token = _contract;\n        listings[key].tokenId = _tokenId;\n        listings[key].price = _price;\n        listings[key].createdAt = createdAt;\n        listings[key].expiry = expiry;\n\n        emit LogListingCreated(_seller, _contract, _tokenId, createdAt, expiry);\n    }\n\n    function _deposit(\n        address _seller,\n        address _contract,\n        uint256 _tokenId,\n        bytes memory _extraData\n    ) internal onlyWhitelisted(_contract) {\n        uint256 price;\n        uint256 currencyUint;\n        (currencyUint, price) = _decodePriceData(_extraData);\n        Currency currency = Currency(currencyUint);\n\n        require(price > 0, \"Invalid price.\");\n\n        _newListing(_seller, _contract, _tokenId, price, currency);\n    }\n\n    // @dev handles purchase logic for WETH\n    function _buy(\n        address _token,\n        uint256 _tokenId,\n        Currency _currency,\n        uint256 _price,\n        address _buyer\n    ) internal {\n        bytes32 key = _getHashKey(_token, _tokenId);\n        Currency currency = listings[key].currency;\n        address seller = listings[key].seller;\n\n        address currencyAddress = _currency == Currency.WETH\n            ? address(WETH)\n            : address(0);\n\n        require(currency == _currency, \"Wrong currency.\");\n        require(_price > 0 && _price == listings[key].price, \"Invalid price.\");\n        require(listings[key].expiry > block.timestamp, \"Item expired.\");\n\n        IERC721 nftToken = IERC721(_token);\n        require(\n            nftToken.ownerOf(_tokenId) == address(this),\n            \"Item is not available.\"\n        );\n\n        if (_currency == Currency.WETH) {\n            // Transfer WETH to marketplace contract\n            require(\n                IERC20(WETH).transferFrom(_buyer, address(this), _price),\n                \"WETH payment transfer failed.\"\n            );\n        }\n\n        nftToken.transferFrom(address(this), _buyer, _tokenId);\n\n        uint256 fee;\n        (, fee) = getFee(_price, currencyAddress, _buyer, seller, _token); // getFee returns percentFee and fee, we only need fee\n\n        if (_currency == Currency.WETH) {\n            IERC20 token = IERC20(WETH);\n\n            token.transfer(seller, _price - fee);\n        } else {\n            require(\n                payable(seller).send(_price - fee) == true,\n                \"Transfer to seller failed.\"\n            );\n        }\n\n        emit LogItemSold(\n            _buyer,\n            seller,\n            _token,\n            _tokenId,\n            _price,\n            currency,\n            block.timestamp\n        );\n\n        delete (listings[key]);\n    }\n\n    function _decodePriceData(bytes memory _extraData)\n        internal\n        pure\n        returns (uint256 _currency, uint256 _price)\n    {\n        // Deserialize _extraData\n        uint256 offset = 64;\n        _price = _bytesToUint256(offset, _extraData);\n        offset -= 32;\n        _currency = _bytesToUint256(offset, _extraData);\n    }\n\n    function _decodeBuyData(bytes memory _extraData)\n        internal\n        pure\n        returns (address _contract, uint256 _tokenId)\n    {\n        // Deserialize _extraData\n        uint256 offset = 64;\n        _tokenId = _bytesToUint256(offset, _extraData);\n        offset -= 32;\n        _contract = _bytesToAddress(offset, _extraData);\n    }\n\n    function _bytesToUint256(uint256 _offst, bytes memory _input)\n        internal\n        pure\n        returns (uint256 _output)\n    {\n        assembly {\n            _output := mload(add(_input, _offst))\n        }\n    }\n\n    function _bytesToAddress(uint256 _offst, bytes memory _input)\n        internal\n        pure\n        returns (address _output)\n    {\n        assembly {\n            _output := mload(add(_input, _offst))\n        }\n    }\n}\n",
  "sourcePath": "/Users/rahulgupta/Workspace/Kindlebit/contracts/NFTListing.sol",
  "compiler": {
    "name": "solc",
    "version": "0.8.13+commit.abaa5c0e.Emscripten.clang"
  },
  "schemaVersion": "3.4.3",
  "updatedAt": "2022-05-03T13:33:23.008Z",
  "devdoc": {
    "kind": "dev",
    "methods": {},
    "version": 1
  },
  "userdoc": {
    "kind": "user",
    "methods": {},
    "version": 1
  }
}