{
  "contractName": "Operator",
  "abi": [
    {
      "anonymous": false,
      "inputs": [
        {
          "indexed": false,
          "internalType": "address",
          "name": "operator",
          "type": "address"
        }
      ],
      "name": "OperatorAdded",
      "type": "event"
    },
    {
      "anonymous": false,
      "inputs": [
        {
          "indexed": false,
          "internalType": "address",
          "name": "operator",
          "type": "address"
        }
      ],
      "name": "OperatorRemoved",
      "type": "event"
    },
    {
      "anonymous": false,
      "inputs": [
        {
          "indexed": true,
          "internalType": "address",
          "name": "previousOwner",
          "type": "address"
        }
      ],
      "name": "OwnershipRenounced",
      "type": "event"
    },
    {
      "anonymous": false,
      "inputs": [
        {
          "indexed": true,
          "internalType": "address",
          "name": "previousOwner",
          "type": "address"
        },
        {
          "indexed": true,
          "internalType": "address",
          "name": "newOwner",
          "type": "address"
        }
      ],
      "name": "OwnershipTransferred",
      "type": "event"
    },
    {
      "inputs": [],
      "name": "MAX_OPS",
      "outputs": [
        {
          "internalType": "uint256",
          "name": "",
          "type": "uint256"
        }
      ],
      "stateMutability": "view",
      "type": "function"
    },
    {
      "inputs": [
        {
          "internalType": "address",
          "name": "",
          "type": "address"
        }
      ],
      "name": "isOperator",
      "outputs": [
        {
          "internalType": "bool",
          "name": "",
          "type": "bool"
        }
      ],
      "stateMutability": "view",
      "type": "function"
    },
    {
      "inputs": [
        {
          "internalType": "uint256",
          "name": "",
          "type": "uint256"
        }
      ],
      "name": "operators",
      "outputs": [
        {
          "internalType": "address",
          "name": "",
          "type": "address"
        }
      ],
      "stateMutability": "view",
      "type": "function"
    },
    {
      "inputs": [],
      "name": "owner",
      "outputs": [
        {
          "internalType": "address",
          "name": "",
          "type": "address"
        }
      ],
      "stateMutability": "view",
      "type": "function"
    },
    {
      "inputs": [],
      "name": "renounceOwnership",
      "outputs": [],
      "stateMutability": "nonpayable",
      "type": "function"
    },
    {
      "inputs": [
        {
          "internalType": "address",
          "name": "_newOwner",
          "type": "address"
        }
      ],
      "name": "transferOwnership",
      "outputs": [],
      "stateMutability": "nonpayable",
      "type": "function"
    },
    {
      "inputs": [
        {
          "internalType": "address",
          "name": "_newOperator",
          "type": "address"
        }
      ],
      "name": "addOperator",
      "outputs": [],
      "stateMutability": "nonpayable",
      "type": "function"
    },
    {
      "inputs": [
        {
          "internalType": "address",
          "name": "_operator",
          "type": "address"
        }
      ],
      "name": "removeOperator",
      "outputs": [],
      "stateMutability": "nonpayable",
      "type": "function"
    },
    {
      "inputs": [],
      "name": "removeAllOps",
      "outputs": [],
      "stateMutability": "nonpayable",
      "type": "function"
    }
  ],
  "bytecode": "0x6080604052601460025534801561001557600080fd5b50336000806101000a81548173ffffffffffffffffffffffffffffffffffffffff021916908373ffffffffffffffffffffffffffffffffffffffff16021790555061107d806100656000396000f3fe608060405234801561001057600080fd5b50600436106100935760003560e01c80639870d7fe116100665780639870d7fe1461010e578063ac8a584a1461012a578063bc14016b14610146578063e28d490614610150578063f2fde38b1461018057610093565b80636d70f7ae14610098578063715018a6146100c8578063786431c1146100d25780638da5cb5b146100f0575b600080fd5b6100b260048036038101906100ad9190610c26565b61019c565b6040516100bf9190610c6e565b60405180910390f35b6100d06101bc565b005b6100da6102ba565b6040516100e79190610ca2565b60405180910390f35b6100f86102c0565b6040516101059190610ccc565b60405180910390f35b61012860048036038101906101239190610c26565b6102e4565b005b610144600480360381019061013f9190610c26565b610576565b005b61014e6108ca565b005b61016a60048036038101906101659190610d13565b6109ec565b6040516101779190610ccc565b60405180910390f35b61019a60048036038101906101959190610c26565b610a2b565b005b60036020528060005260406000206000915054906101000a900460ff1681565b60008054906101000a900473ffffffffffffffffffffffffffffffffffffffff1673ffffffffffffffffffffffffffffffffffffffff163373ffffffffffffffffffffffffffffffffffffffff161461021457600080fd5b60008054906101000a900473ffffffffffffffffffffffffffffffffffffffff1673ffffffffffffffffffffffffffffffffffffffff167ff8df31144d9c2f0f6b59d69b8b98abd5459d07f2742c4df920b25aae33c6482060405160405180910390a260008060006101000a81548173ffffffffffffffffffffffffffffffffffffffff021916908373ffffffffffffffffffffffffffffffffffffffff160217905550565b60025481565b60008054906101000a900473ffffffffffffffffffffffffffffffffffffffff1681565b60008054906101000a900473ffffffffffffffffffffffffffffffffffffffff1673ffffffffffffffffffffffffffffffffffffffff163373ffffffffffffffffffffffffffffffffffffffff161461033c57600080fd5b600073ffffffffffffffffffffffffffffffffffffffff168173ffffffffffffffffffffffffffffffffffffffff16036103ab576040517f08c379a00000000000000000000000000000000000000000000000000000000081526004016103a290610d9d565b60405180910390fd5b600360008273ffffffffffffffffffffffffffffffffffffffff1673ffffffffffffffffffffffffffffffffffffffff16815260200190815260200160002060009054906101000a900460ff1615610438576040517f08c379a000000000000000000000000000000000000000000000000000000000815260040161042f90610e09565b60405180910390fd5b60025460018054905010610481576040517f08c379a000000000000000000000000000000000000000000000000000000000815260040161047890610e75565b60405180910390fd5b6001819080600181540180825580915050600190039060005260206000200160009091909190916101000a81548173ffffffffffffffffffffffffffffffffffffffff021916908373ffffffffffffffffffffffffffffffffffffffff1602179055506001600360008373ffffffffffffffffffffffffffffffffffffffff1673ffffffffffffffffffffffffffffffffffffffff16815260200190815260200160002060006101000a81548160ff0219169083151502179055507fac6fa858e9350a46cec16539926e0fde25b7629f84b5a72bffaae4df888ae86d8160405161056b9190610ccc565b60405180910390a150565b60008054906101000a900473ffffffffffffffffffffffffffffffffffffffff1673ffffffffffffffffffffffffffffffffffffffff163373ffffffffffffffffffffffffffffffffffffffff16146105ce57600080fd5b600060018054905011610616576040517f08c379a000000000000000000000000000000000000000000000000000000000815260040161060d90610ee1565b60405180910390fd5b600360008273ffffffffffffffffffffffffffffffffffffffff1673ffffffffffffffffffffffffffffffffffffffff16815260200190815260200160002060009054906101000a900460ff166106a2576040517f08c379a000000000000000000000000000000000000000000000000000000000815260040161069990610f4d565b60405180910390fd5b600060018080805490506106b69190610f9c565b815481106106c7576106c6610fd0565b5b9060005260206000200160009054906101000a900473ffffffffffffffffffffffffffffffffffffffff16905060005b6001805490508110156107e6578273ffffffffffffffffffffffffffffffffffffffff166001828154811061072f5761072e610fd0565b5b9060005260206000200160009054906101000a900473ffffffffffffffffffffffffffffffffffffffff1673ffffffffffffffffffffffffffffffffffffffff16036107d357816001828154811061078a57610789610fd0565b5b9060005260206000200160006101000a81548173ffffffffffffffffffffffffffffffffffffffff021916908373ffffffffffffffffffffffffffffffffffffffff1602179055505b80806107de90610fff565b9150506106f7565b5060018080805490506107f99190610f9c565b8154811061080a57610809610fd0565b5b9060005260206000200160006101000a81549073ffffffffffffffffffffffffffffffffffffffff02191690556000600360008473ffffffffffffffffffffffffffffffffffffffff1673ffffffffffffffffffffffffffffffffffffffff16815260200190815260200160002060006101000a81548160ff0219169083151502179055507f80c0b871b97b595b16a7741c1b06fed0c6f6f558639f18ccbce50724325dc40d826040516108be9190610ccc565b60405180910390a15050565b60008054906101000a900473ffffffffffffffffffffffffffffffffffffffff1673ffffffffffffffffffffffffffffffffffffffff163373ffffffffffffffffffffffffffffffffffffffff161461092257600080fd5b60005b6001805490508110156109db576000600360006001848154811061094c5761094b610fd0565b5b9060005260206000200160009054906101000a900473ffffffffffffffffffffffffffffffffffffffff1673ffffffffffffffffffffffffffffffffffffffff1673ffffffffffffffffffffffffffffffffffffffff16815260200190815260200160002060006101000a81548160ff02191690831515021790555080806109d390610fff565b915050610925565b50600160006109ea9190610b85565b565b600181815481106109fc57600080fd5b906000526020600020016000915054906101000a900473ffffffffffffffffffffffffffffffffffffffff1681565b60008054906101000a900473ffffffffffffffffffffffffffffffffffffffff1673ffffffffffffffffffffffffffffffffffffffff163373ffffffffffffffffffffffffffffffffffffffff1614610a8357600080fd5b610a8c81610a8f565b50565b600073ffffffffffffffffffffffffffffffffffffffff168173ffffffffffffffffffffffffffffffffffffffff1603610ac857600080fd5b8073ffffffffffffffffffffffffffffffffffffffff1660008054906101000a900473ffffffffffffffffffffffffffffffffffffffff1673ffffffffffffffffffffffffffffffffffffffff167f8be0079c531659141344cd1fd0a4f28419497f9722a3daafe3b4186f6b6457e060405160405180910390a3806000806101000a81548173ffffffffffffffffffffffffffffffffffffffff021916908373ffffffffffffffffffffffffffffffffffffffff16021790555050565b5080546000825590600052602060002090810190610ba39190610ba6565b50565b5b80821115610bbf576000816000905550600101610ba7565b5090565b600080fd5b600073ffffffffffffffffffffffffffffffffffffffff82169050919050565b6000610bf382610bc8565b9050919050565b610c0381610be8565b8114610c0e57600080fd5b50565b600081359050610c2081610bfa565b92915050565b600060208284031215610c3c57610c3b610bc3565b5b6000610c4a84828501610c11565b91505092915050565b60008115159050919050565b610c6881610c53565b82525050565b6000602082019050610c836000830184610c5f565b92915050565b6000819050919050565b610c9c81610c89565b82525050565b6000602082019050610cb76000830184610c93565b92915050565b610cc681610be8565b82525050565b6000602082019050610ce16000830184610cbd565b92915050565b610cf081610c89565b8114610cfb57600080fd5b50565b600081359050610d0d81610ce7565b92915050565b600060208284031215610d2957610d28610bc3565b5b6000610d3784828501610cfe565b91505092915050565b600082825260208201905092915050565b7f496e76616c6964206e6577206f70657261746f7220616464726573732e000000600082015250565b6000610d87601d83610d40565b9150610d9282610d51565b602082019050919050565b60006020820190508181036000830152610db681610d7a565b9050919050565b7f4e6577206f70657261746f72206578697374732e000000000000000000000000600082015250565b6000610df3601483610d40565b9150610dfe82610dbd565b602082019050919050565b60006020820190508181036000830152610e2281610de6565b9050919050565b7f4f766572666c6f772e0000000000000000000000000000000000000000000000600082015250565b6000610e5f600983610d40565b9150610e6a82610e29565b602082019050919050565b60006020820190508181036000830152610e8e81610e52565b9050919050565b7f4e6f206f70657261746f722e0000000000000000000000000000000000000000600082015250565b6000610ecb600c83610d40565b9150610ed682610e95565b602082019050919050565b60006020820190508181036000830152610efa81610ebe565b9050919050565b7f4e6f7420616e206f70657261746f722e00000000000000000000000000000000600082015250565b6000610f37601083610d40565b9150610f4282610f01565b602082019050919050565b60006020820190508181036000830152610f6681610f2a565b9050919050565b7f4e487b7100000000000000000000000000000000000000000000000000000000600052601160045260246000fd5b6000610fa782610c89565b9150610fb283610c89565b925082821015610fc557610fc4610f6d565b5b828203905092915050565b7f4e487b7100000000000000000000000000000000000000000000000000000000600052603260045260246000fd5b600061100a82610c89565b91507fffffffffffffffffffffffffffffffffffffffffffffffffffffffffffffffff820361103c5761103b610f6d565b5b60018201905091905056fea2646970667358221220e8e04d4517b81da4070425482c305fa0413d64bdb98d4c92493c3c2c78220c1d64736f6c634300080d0033",
  "immutableReferences": {},
  "source": "// SPDX-License-Identifier: MIT\n\npragma solidity ^0.8.0;\n\nimport \"./Ownable.sol\";\n\ncontract Operator is Ownable {\n    address[] public operators;\n\n    uint256 public MAX_OPS = 20;\n\n    mapping(address => bool) public isOperator;\n\n    event OperatorAdded(address operator);\n    event OperatorRemoved(address operator);\n\n    modifier onlyOperator() {\n        require(\n            isOperator[msg.sender] || msg.sender == owner,\n            \"Permission denied. Must be an operator or the owner.\"\n        );\n        _;\n    }\n\n    function addOperator(address _newOperator) public onlyOwner {\n        require(_newOperator != address(0), \"Invalid new operator address.\");\n\n        require(!isOperator[_newOperator], \"New operator exists.\");\n\n        require(operators.length < MAX_OPS, \"Overflow.\");\n\n        operators.push(_newOperator);\n        isOperator[_newOperator] = true;\n\n        emit OperatorAdded(_newOperator);\n    }\n\n    function removeOperator(address _operator) public onlyOwner {\n        // Make sure operators array is not empty\n        require(operators.length > 0, \"No operator.\");\n\n        require(isOperator[_operator], \"Not an operator.\");\n\n        address lastOperator = operators[operators.length - 1];\n        for (uint256 i = 0; i < operators.length; i++) {\n            if (operators[i] == _operator) {\n                operators[i] = lastOperator;\n            }\n        }\n        delete operators[operators.length - 1];\n        isOperator[_operator] = false;\n        emit OperatorRemoved(_operator);\n    }\n\n    function removeAllOps() public onlyOwner {\n        for (uint256 i = 0; i < operators.length; i++) {\n            isOperator[operators[i]] = false;\n        }\n        delete operators;\n    }\n}\n",
  "sourcePath": "/Users/rahulgupta/Workspace/Kindlebit/contracts/Operator.sol",
  "compiler": {
    "name": "solc",
    "version": "0.8.13+commit.abaa5c0e.Emscripten.clang"
  },
  "schemaVersion": "3.4.3",
  "updatedAt": "2022-05-03T13:31:36.009Z",
  "devdoc": {
    "kind": "dev",
    "methods": {},
    "version": 1
  },
  "userdoc": {
    "kind": "user",
    "methods": {},
    "version": 1
  }
}