{
  "contractName": "Whitelist",
  "abi": [
    {
      "anonymous": false,
      "inputs": [
        {
          "indexed": true,
          "internalType": "address",
          "name": "addr",
          "type": "address"
        },
        {
          "indexed": false,
          "internalType": "address",
          "name": "operator",
          "type": "address"
        }
      ],
      "name": "AddressRemovedFromWhitelist",
      "type": "event"
    },
    {
      "anonymous": false,
      "inputs": [
        {
          "indexed": true,
          "internalType": "address",
          "name": "addr",
          "type": "address"
        },
        {
          "indexed": false,
          "internalType": "address",
          "name": "operator",
          "type": "address"
        }
      ],
      "name": "AddressWhitelisted",
      "type": "event"
    },
    {
      "anonymous": false,
      "inputs": [
        {
          "indexed": false,
          "internalType": "address",
          "name": "operator",
          "type": "address"
        }
      ],
      "name": "OperatorAdded",
      "type": "event"
    },
    {
      "anonymous": false,
      "inputs": [
        {
          "indexed": false,
          "internalType": "address",
          "name": "operator",
          "type": "address"
        }
      ],
      "name": "OperatorRemoved",
      "type": "event"
    },
    {
      "anonymous": false,
      "inputs": [
        {
          "indexed": true,
          "internalType": "address",
          "name": "previousOwner",
          "type": "address"
        }
      ],
      "name": "OwnershipRenounced",
      "type": "event"
    },
    {
      "anonymous": false,
      "inputs": [
        {
          "indexed": true,
          "internalType": "address",
          "name": "previousOwner",
          "type": "address"
        },
        {
          "indexed": true,
          "internalType": "address",
          "name": "newOwner",
          "type": "address"
        }
      ],
      "name": "OwnershipTransferred",
      "type": "event"
    },
    {
      "inputs": [],
      "name": "MAX_OPS",
      "outputs": [
        {
          "internalType": "uint256",
          "name": "",
          "type": "uint256"
        }
      ],
      "stateMutability": "view",
      "type": "function"
    },
    {
      "inputs": [
        {
          "internalType": "address",
          "name": "_newOperator",
          "type": "address"
        }
      ],
      "name": "addOperator",
      "outputs": [],
      "stateMutability": "nonpayable",
      "type": "function"
    },
    {
      "inputs": [
        {
          "internalType": "address",
          "name": "",
          "type": "address"
        }
      ],
      "name": "isOperator",
      "outputs": [
        {
          "internalType": "bool",
          "name": "",
          "type": "bool"
        }
      ],
      "stateMutability": "view",
      "type": "function"
    },
    {
      "inputs": [
        {
          "internalType": "address",
          "name": "",
          "type": "address"
        }
      ],
      "name": "isWhitelisted",
      "outputs": [
        {
          "internalType": "bool",
          "name": "",
          "type": "bool"
        }
      ],
      "stateMutability": "view",
      "type": "function"
    },
    {
      "inputs": [
        {
          "internalType": "uint256",
          "name": "",
          "type": "uint256"
        }
      ],
      "name": "operators",
      "outputs": [
        {
          "internalType": "address",
          "name": "",
          "type": "address"
        }
      ],
      "stateMutability": "view",
      "type": "function"
    },
    {
      "inputs": [],
      "name": "owner",
      "outputs": [
        {
          "internalType": "address",
          "name": "",
          "type": "address"
        }
      ],
      "stateMutability": "view",
      "type": "function"
    },
    {
      "inputs": [],
      "name": "removeAllOps",
      "outputs": [],
      "stateMutability": "nonpayable",
      "type": "function"
    },
    {
      "inputs": [
        {
          "internalType": "address",
          "name": "_operator",
          "type": "address"
        }
      ],
      "name": "removeOperator",
      "outputs": [],
      "stateMutability": "nonpayable",
      "type": "function"
    },
    {
      "inputs": [],
      "name": "renounceOwnership",
      "outputs": [],
      "stateMutability": "nonpayable",
      "type": "function"
    },
    {
      "inputs": [],
      "name": "total",
      "outputs": [
        {
          "internalType": "uint256",
          "name": "",
          "type": "uint256"
        }
      ],
      "stateMutability": "view",
      "type": "function"
    },
    {
      "inputs": [
        {
          "internalType": "address",
          "name": "_newOwner",
          "type": "address"
        }
      ],
      "name": "transferOwnership",
      "outputs": [],
      "stateMutability": "nonpayable",
      "type": "function"
    },
    {
      "inputs": [
        {
          "internalType": "address",
          "name": "_newAddr",
          "type": "address"
        }
      ],
      "name": "addToWhitelist",
      "outputs": [],
      "stateMutability": "nonpayable",
      "type": "function"
    },
    {
      "inputs": [
        {
          "internalType": "address",
          "name": "_addr",
          "type": "address"
        }
      ],
      "name": "removeFromWhitelist",
      "outputs": [],
      "stateMutability": "nonpayable",
      "type": "function"
    },
    {
      "inputs": [
        {
          "internalType": "address[]",
          "name": "_addresses",
          "type": "address[]"
        },
        {
          "internalType": "bool",
          "name": "_whitelisted",
          "type": "bool"
        }
      ],
      "name": "whitelistAddresses",
      "outputs": [],
      "stateMutability": "nonpayable",
      "type": "function"
    }
  ],
  "bytecode": "0x60806040526014600255600060045534801561001a57600080fd5b50336000806101000a81548173ffffffffffffffffffffffffffffffffffffffff021916908373ffffffffffffffffffffffffffffffffffffffff160217905550611ce28061006a6000396000f3fe608060405234801561001057600080fd5b50600436106100ea5760003560e01c80638da5cb5b1161008c578063bc14016b11610066578063bc14016b14610223578063e28d49061461022d578063e43252d71461025d578063f2fde38b14610279576100ea565b80638da5cb5b146101cd5780639870d7fe146101eb578063ac8a584a14610207576100ea565b80636d70f7ae116100c85780636d70f7ae14610159578063715018a614610189578063786431c1146101935780638ab1d681146101b1576100ea565b80632ddbd13a146100ef5780633af32abf1461010d57806362e7707e1461013d575b600080fd5b6100f7610295565b60405161010491906113e6565b60405180910390f35b61012760048036038101906101229190611473565b61029b565b60405161013491906114bb565b60405180910390f35b6101576004803603810190610152919061165b565b6102bb565b005b610173600480360381019061016e9190611473565b61045d565b60405161018091906114bb565b60405180910390f35b61019161047d565b005b61019b61057b565b6040516101a891906113e6565b60405180910390f35b6101cb60048036038101906101c69190611473565b610581565b005b6101d561082b565b6040516101e291906116c6565b60405180910390f35b61020560048036038101906102009190611473565b61084f565b005b610221600480360381019061021c9190611473565b610ae1565b005b61022b610e35565b005b6102476004803603810190610242919061170d565b610f57565b60405161025491906116c6565b60405180910390f35b61027760048036038101906102729190611473565b610f96565b005b610293600480360381019061028e9190611473565b611235565b005b60045481565b60056020528060005260406000206000915054906101000a900460ff1681565b600360003373ffffffffffffffffffffffffffffffffffffffff1673ffffffffffffffffffffffffffffffffffffffff16815260200190815260200160002060009054906101000a900460ff168061035e575060008054906101000a900473ffffffffffffffffffffffffffffffffffffffff1673ffffffffffffffffffffffffffffffffffffffff163373ffffffffffffffffffffffffffffffffffffffff16145b61039d576040517f08c379a0000000000000000000000000000000000000000000000000000000008152600401610394906117bd565b60405180910390fd5b60005b82518110156104585760008382815181106103be576103bd6117dd565b5b60200260200101519050821515600560008373ffffffffffffffffffffffffffffffffffffffff1673ffffffffffffffffffffffffffffffffffffffff16815260200190815260200160002060009054906101000a900460ff161515036104255750610445565b82156104395761043481610f96565b610443565b61044281610581565b5b505b80806104509061183b565b9150506103a0565b505050565b60036020528060005260406000206000915054906101000a900460ff1681565b60008054906101000a900473ffffffffffffffffffffffffffffffffffffffff1673ffffffffffffffffffffffffffffffffffffffff163373ffffffffffffffffffffffffffffffffffffffff16146104d557600080fd5b60008054906101000a900473ffffffffffffffffffffffffffffffffffffffff1673ffffffffffffffffffffffffffffffffffffffff167ff8df31144d9c2f0f6b59d69b8b98abd5459d07f2742c4df920b25aae33c6482060405160405180910390a260008060006101000a81548173ffffffffffffffffffffffffffffffffffffffff021916908373ffffffffffffffffffffffffffffffffffffffff160217905550565b60025481565b600360003373ffffffffffffffffffffffffffffffffffffffff1673ffffffffffffffffffffffffffffffffffffffff16815260200190815260200160002060009054906101000a900460ff1680610624575060008054906101000a900473ffffffffffffffffffffffffffffffffffffffff1673ffffffffffffffffffffffffffffffffffffffff163373ffffffffffffffffffffffffffffffffffffffff16145b610663576040517f08c379a000000000000000000000000000000000000000000000000000000000815260040161065a906117bd565b60405180910390fd5b600073ffffffffffffffffffffffffffffffffffffffff168173ffffffffffffffffffffffffffffffffffffffff16036106d2576040517f08c379a00000000000000000000000000000000000000000000000000000000081526004016106c9906118cf565b60405180910390fd5b600560008273ffffffffffffffffffffffffffffffffffffffff1673ffffffffffffffffffffffffffffffffffffffff16815260200190815260200160002060009054906101000a900460ff1661075e576040517f08c379a00000000000000000000000000000000000000000000000000000000081526004016107559061193b565b60405180910390fd5b6000600560008373ffffffffffffffffffffffffffffffffffffffff1673ffffffffffffffffffffffffffffffffffffffff16815260200190815260200160002060006101000a81548160ff021916908315150217905550600060045411156107da57600460008154809291906107d49061195b565b91905055505b8073ffffffffffffffffffffffffffffffffffffffff167f5a76ef3d09a09d8a99c3d9ddddfb7770d906de670d79b5119a8c2cba903814bb3360405161082091906116c6565b60405180910390a250565b60008054906101000a900473ffffffffffffffffffffffffffffffffffffffff1681565b60008054906101000a900473ffffffffffffffffffffffffffffffffffffffff1673ffffffffffffffffffffffffffffffffffffffff163373ffffffffffffffffffffffffffffffffffffffff16146108a757600080fd5b600073ffffffffffffffffffffffffffffffffffffffff168173ffffffffffffffffffffffffffffffffffffffff1603610916576040517f08c379a000000000000000000000000000000000000000000000000000000000815260040161090d906119d0565b60405180910390fd5b600360008273ffffffffffffffffffffffffffffffffffffffff1673ffffffffffffffffffffffffffffffffffffffff16815260200190815260200160002060009054906101000a900460ff16156109a3576040517f08c379a000000000000000000000000000000000000000000000000000000000815260040161099a90611a3c565b60405180910390fd5b600254600180549050106109ec576040517f08c379a00000000000000000000000000000000000000000000000000000000081526004016109e390611aa8565b60405180910390fd5b6001819080600181540180825580915050600190039060005260206000200160009091909190916101000a81548173ffffffffffffffffffffffffffffffffffffffff021916908373ffffffffffffffffffffffffffffffffffffffff1602179055506001600360008373ffffffffffffffffffffffffffffffffffffffff1673ffffffffffffffffffffffffffffffffffffffff16815260200190815260200160002060006101000a81548160ff0219169083151502179055507fac6fa858e9350a46cec16539926e0fde25b7629f84b5a72bffaae4df888ae86d81604051610ad691906116c6565b60405180910390a150565b60008054906101000a900473ffffffffffffffffffffffffffffffffffffffff1673ffffffffffffffffffffffffffffffffffffffff163373ffffffffffffffffffffffffffffffffffffffff1614610b3957600080fd5b600060018054905011610b81576040517f08c379a0000000000000000000000000000000000000000000000000000000008152600401610b7890611b14565b60405180910390fd5b600360008273ffffffffffffffffffffffffffffffffffffffff1673ffffffffffffffffffffffffffffffffffffffff16815260200190815260200160002060009054906101000a900460ff16610c0d576040517f08c379a0000000000000000000000000000000000000000000000000000000008152600401610c0490611b80565b60405180910390fd5b60006001808080549050610c219190611ba0565b81548110610c3257610c316117dd565b5b9060005260206000200160009054906101000a900473ffffffffffffffffffffffffffffffffffffffff16905060005b600180549050811015610d51578273ffffffffffffffffffffffffffffffffffffffff1660018281548110610c9a57610c996117dd565b5b9060005260206000200160009054906101000a900473ffffffffffffffffffffffffffffffffffffffff1673ffffffffffffffffffffffffffffffffffffffff1603610d3e578160018281548110610cf557610cf46117dd565b5b9060005260206000200160006101000a81548173ffffffffffffffffffffffffffffffffffffffff021916908373ffffffffffffffffffffffffffffffffffffffff1602179055505b8080610d499061183b565b915050610c62565b506001808080549050610d649190611ba0565b81548110610d7557610d746117dd565b5b9060005260206000200160006101000a81549073ffffffffffffffffffffffffffffffffffffffff02191690556000600360008473ffffffffffffffffffffffffffffffffffffffff1673ffffffffffffffffffffffffffffffffffffffff16815260200190815260200160002060006101000a81548160ff0219169083151502179055507f80c0b871b97b595b16a7741c1b06fed0c6f6f558639f18ccbce50724325dc40d82604051610e2991906116c6565b60405180910390a15050565b60008054906101000a900473ffffffffffffffffffffffffffffffffffffffff1673ffffffffffffffffffffffffffffffffffffffff163373ffffffffffffffffffffffffffffffffffffffff1614610e8d57600080fd5b60005b600180549050811015610f465760006003600060018481548110610eb757610eb66117dd565b5b9060005260206000200160009054906101000a900473ffffffffffffffffffffffffffffffffffffffff1673ffffffffffffffffffffffffffffffffffffffff1673ffffffffffffffffffffffffffffffffffffffff16815260200190815260200160002060006101000a81548160ff0219169083151502179055508080610f3e9061183b565b915050610e90565b5060016000610f55919061138f565b565b60018181548110610f6757600080fd5b906000526020600020016000915054906101000a900473ffffffffffffffffffffffffffffffffffffffff1681565b600360003373ffffffffffffffffffffffffffffffffffffffff1673ffffffffffffffffffffffffffffffffffffffff16815260200190815260200160002060009054906101000a900460ff1680611039575060008054906101000a900473ffffffffffffffffffffffffffffffffffffffff1673ffffffffffffffffffffffffffffffffffffffff163373ffffffffffffffffffffffffffffffffffffffff16145b611078576040517f08c379a000000000000000000000000000000000000000000000000000000000815260040161106f906117bd565b60405180910390fd5b600073ffffffffffffffffffffffffffffffffffffffff168173ffffffffffffffffffffffffffffffffffffffff16036110e7576040517f08c379a00000000000000000000000000000000000000000000000000000000081526004016110de90611c20565b60405180910390fd5b600560008273ffffffffffffffffffffffffffffffffffffffff1673ffffffffffffffffffffffffffffffffffffffff16815260200190815260200160002060009054906101000a900460ff1615611174576040517f08c379a000000000000000000000000000000000000000000000000000000000815260040161116b90611c8c565b60405180910390fd5b6001600560008373ffffffffffffffffffffffffffffffffffffffff1673ffffffffffffffffffffffffffffffffffffffff16815260200190815260200160002060006101000a81548160ff021916908315150217905550600460008154809291906111df9061183b565b91905055508073ffffffffffffffffffffffffffffffffffffffff167f3d8a67432904f5c76d317bd3d7568237471009d9a286cd487736d0e2d103e6ad3360405161122a91906116c6565b60405180910390a250565b60008054906101000a900473ffffffffffffffffffffffffffffffffffffffff1673ffffffffffffffffffffffffffffffffffffffff163373ffffffffffffffffffffffffffffffffffffffff161461128d57600080fd5b61129681611299565b50565b600073ffffffffffffffffffffffffffffffffffffffff168173ffffffffffffffffffffffffffffffffffffffff16036112d257600080fd5b8073ffffffffffffffffffffffffffffffffffffffff1660008054906101000a900473ffffffffffffffffffffffffffffffffffffffff1673ffffffffffffffffffffffffffffffffffffffff167f8be0079c531659141344cd1fd0a4f28419497f9722a3daafe3b4186f6b6457e060405160405180910390a3806000806101000a81548173ffffffffffffffffffffffffffffffffffffffff021916908373ffffffffffffffffffffffffffffffffffffffff16021790555050565b50805460008255906000526020600020908101906113ad91906113b0565b50565b5b808211156113c95760008160009055506001016113b1565b5090565b6000819050919050565b6113e0816113cd565b82525050565b60006020820190506113fb60008301846113d7565b92915050565b6000604051905090565b600080fd5b600080fd5b600073ffffffffffffffffffffffffffffffffffffffff82169050919050565b600061144082611415565b9050919050565b61145081611435565b811461145b57600080fd5b50565b60008135905061146d81611447565b92915050565b6000602082840312156114895761148861140b565b5b60006114978482850161145e565b91505092915050565b60008115159050919050565b6114b5816114a0565b82525050565b60006020820190506114d060008301846114ac565b92915050565b600080fd5b6000601f19601f8301169050919050565b7f4e487b7100000000000000000000000000000000000000000000000000000000600052604160045260246000fd5b611524826114db565b810181811067ffffffffffffffff82111715611543576115426114ec565b5b80604052505050565b6000611556611401565b9050611562828261151b565b919050565b600067ffffffffffffffff821115611582576115816114ec565b5b602082029050602081019050919050565b600080fd5b60006115ab6115a684611567565b61154c565b905080838252602082019050602084028301858111156115ce576115cd611593565b5b835b818110156115f757806115e3888261145e565b8452602084019350506020810190506115d0565b5050509392505050565b600082601f830112611616576116156114d6565b5b8135611626848260208601611598565b91505092915050565b611638816114a0565b811461164357600080fd5b50565b6000813590506116558161162f565b92915050565b600080604083850312156116725761167161140b565b5b600083013567ffffffffffffffff8111156116905761168f611410565b5b61169c85828601611601565b92505060206116ad85828601611646565b9150509250929050565b6116c081611435565b82525050565b60006020820190506116db60008301846116b7565b92915050565b6116ea816113cd565b81146116f557600080fd5b50565b600081359050611707816116e1565b92915050565b6000602082840312156117235761172261140b565b5b6000611731848285016116f8565b91505092915050565b600082825260208201905092915050565b7f5065726d697373696f6e2064656e6965642e204d75737420626520616e206f7060008201527f657261746f72206f7220746865206f776e65722e000000000000000000000000602082015250565b60006117a760348361173a565b91506117b28261174b565b604082019050919050565b600060208201905081810360008301526117d68161179a565b9050919050565b7f4e487b7100000000000000000000000000000000000000000000000000000000600052603260045260246000fd5b7f4e487b7100000000000000000000000000000000000000000000000000000000600052601160045260246000fd5b6000611846826113cd565b91507fffffffffffffffffffffffffffffffffffffffffffffffffffffffffffffffff82036118785761187761180c565b5b600182019050919050565b7f496e76616c696420616464726573732e00000000000000000000000000000000600082015250565b60006118b960108361173a565b91506118c482611883565b602082019050919050565b600060208201905081810360008301526118e8816118ac565b9050919050565b7f41646472657373206e6f7420696e2077686974656c6973742e00000000000000600082015250565b600061192560198361173a565b9150611930826118ef565b602082019050919050565b6000602082019050818103600083015261195481611918565b9050919050565b6000611966826113cd565b9150600082036119795761197861180c565b5b600182039050919050565b7f496e76616c6964206e6577206f70657261746f7220616464726573732e000000600082015250565b60006119ba601d8361173a565b91506119c582611984565b602082019050919050565b600060208201905081810360008301526119e9816119ad565b9050919050565b7f4e6577206f70657261746f72206578697374732e000000000000000000000000600082015250565b6000611a2660148361173a565b9150611a31826119f0565b602082019050919050565b60006020820190508181036000830152611a5581611a19565b9050919050565b7f4f766572666c6f772e0000000000000000000000000000000000000000000000600082015250565b6000611a9260098361173a565b9150611a9d82611a5c565b602082019050919050565b60006020820190508181036000830152611ac181611a85565b9050919050565b7f4e6f206f70657261746f722e0000000000000000000000000000000000000000600082015250565b6000611afe600c8361173a565b9150611b0982611ac8565b602082019050919050565b60006020820190508181036000830152611b2d81611af1565b9050919050565b7f4e6f7420616e206f70657261746f722e00000000000000000000000000000000600082015250565b6000611b6a60108361173a565b9150611b7582611b34565b602082019050919050565b60006020820190508181036000830152611b9981611b5d565b9050919050565b6000611bab826113cd565b9150611bb6836113cd565b925082821015611bc957611bc861180c565b5b828203905092915050565b7f496e76616c6964206e657720616464726573732e000000000000000000000000600082015250565b6000611c0a60148361173a565b9150611c1582611bd4565b602082019050919050565b60006020820190508181036000830152611c3981611bfd565b9050919050565b7f4164647265737320697320616c72656164792077686974656c69737465642e00600082015250565b6000611c76601f8361173a565b9150611c8182611c40565b602082019050919050565b60006020820190508181036000830152611ca581611c69565b905091905056fea26469706673582212204fec80429cf244dcbfb84805ab913dc1e80616deed6df2febc2de326d2c69a6764736f6c634300080d0033",
  "immutableReferences": {},
  "source": "// SPDX-License-Identifier: MIT\n\npragma solidity ^0.8.0;\n\nimport \"./Operator.sol\";\n\ncontract Whitelist is Operator {\n    uint256 public total = 0;\n    mapping(address => bool) public isWhitelisted;\n\n    event AddressWhitelisted(address indexed addr, address operator);\n    event AddressRemovedFromWhitelist(address indexed addr, address operator);\n\n    modifier onlyWhitelisted(address _address) {\n        require(isWhitelisted[_address], \"Address is not on the whitelist.\");\n        _;\n    }\n\n    function addToWhitelist(address _newAddr) public onlyOperator {\n        require(_newAddr != address(0), \"Invalid new address.\");\n\n        require(!isWhitelisted[_newAddr], \"Address is already whitelisted.\");\n\n        isWhitelisted[_newAddr] = true;\n        total++;\n        emit AddressWhitelisted(_newAddr, msg.sender);\n    }\n\n    function removeFromWhitelist(address _addr) public onlyOperator {\n        require(_addr != address(0), \"Invalid address.\");\n\n        require(isWhitelisted[_addr], \"Address not in whitelist.\");\n\n        isWhitelisted[_addr] = false;\n        if (total > 0) {\n            total--;\n        }\n        emit AddressRemovedFromWhitelist(_addr, msg.sender);\n    }\n\n    function whitelistAddresses(address[] memory _addresses, bool _whitelisted)\n        public\n        onlyOperator\n    {\n        for (uint256 i = 0; i < _addresses.length; i++) {\n            address addr = _addresses[i];\n            if (isWhitelisted[addr] == _whitelisted) continue;\n            if (_whitelisted) {\n                addToWhitelist(addr);\n            } else {\n                removeFromWhitelist(addr);\n            }\n        }\n    }\n}\n",
  "sourcePath": "/Users/rahulgupta/Workspace/Kindlebit/contracts/Whitelist.sol",
  "compiler": {
    "name": "solc",
    "version": "0.8.13+commit.abaa5c0e.Emscripten.clang"
  },
  "schemaVersion": "3.4.3",
  "updatedAt": "2022-05-03T13:31:36.042Z",
  "devdoc": {
    "kind": "dev",
    "methods": {},
    "version": 1
  },
  "userdoc": {
    "kind": "user",
    "methods": {},
    "version": 1
  }
}